:100000000C949E000C94C6000C94C6000C94410500
:100010000C9441050C9441050C94C6000C94C60048
:100020000C94C6000C94C6000C94C6000C94C60038
:100030000C94C6000C94C6000C94C6000C94C60028
:100040000C94F7040C94C6000C94C5040C949F0403
:100050000C94C6000C94C6000C94C6000C94C60008
:100060000C94C6000C94C6000000000800020100B9
:1000700000030407000000000000000042617564F6
:1000800020726174653A20005061636B6574206C66
:10009000656E3A2000446576696365206164647228
:1000A0006573733A20005365637572697479206CC7
:1000B0006576656C3A200043617061636974793AD2
:1000C00020005379732049443A20307800537461FA
:1000D0007475733A2030780052656164696E6720E8
:1000E00073656E736F7220706172616D6574657295
:1000F000730000000000230026002900000000001B
:10010000240027002A0000000000250028002B0002
:1001100004040404040404040202020202020303AD
:1001200003030303010204081020408001020408B5
:1001300010200102040810200506F00A11241FBE39
:10014000CFEFD8E0DEBFCDBF12E0A0E0B1E0E0EE3F
:10015000F6E102C005900D92A63EB107D9F724E062
:10016000A6EEB2E001C01D92A732B207E1F710E09F
:10017000CDE9D0E004C02197FE010E94420BCC39AA
:10018000D107C9F70E9433070C94630B0C9400004D
:10019000DF92EF92FF920F931F93CF93DF93EC01C7
:1001A00080910204909103046981DC01ED91FC913E
:1001B0000190F081E02D0995809102049091030453
:1001C000DC01ED91FC910190F081E02D68810995B1
:1001D0008091020490910304DC01ED91FC91019067
:1001E000F081E02D6A8109958091020490910304C9
:1001F000DC01ED91FC910190F081E02D6B8109957E
:100200008091020490910304DC01ED91FC91019036
:10021000F081E02D6C810995809102049091030496
:10022000DC01ED91FC910190F081E02D6D8109954B
:100230008091020490910304DC01ED91FC91019006
:10024000F081E02D6E8109950F8118850E5F1F4F9B
:100250008091020490910304E12EFF24DC01ED91D2
:10026000FC910190F081E02D6E2D099580910204A2
:1002700090910304DC01ED91FC910190F081E02D5F
:10028000602F09950E0D1F2D111D8E81080F111D58
:10029000D12C8091020490910304DC01ED91FC913A
:1002A0000190F081E02DED2CF12C2F813885E216A4
:1002B000F30660F4EC0EFD1ED70119966C910995BA
:1002C000F7018185080F111DD394E3CF612F0995A4
:1002D0008091020490910304DC01ED91FC91019066
:1002E000F081E02D602FDF91CF911F910F91FF9052
:1002F000EF90DF900994AF92BF92CF92DF92EF928E
:10030000FF920F931F93CF93DF936C017B018B01BF
:10031000040F151FEB015E01AE18BF08C017D1070F
:1003200059F06991D601ED91FC910190F081E02D99
:10033000C6010995892B79F7C501DF91CF911F91EE
:100340000F91FF90EF90DF90CF90BF90AF90089506
:10035000FC01538D448D252F30E0842F90E0821BCB
:10036000930B541710F0CF96089501970895FC0150
:10037000918D828D981761F0A28DAE0FBF2FB11DA8
:100380005D968C91928D9F5F9F73928F90E0089500
:100390008FEF9FEF0895FC01918D828D981731F0BA
:1003A000828DE80FF11D858D90E008958FEF9FEF0E
:1003B0000895FC01918D228D892F90E0805C9F4FE4
:1003C000821B91098F739927089583E393E00E941C
:1003D000D90121E0892B09F420E0822F089580E0E3
:1003E00090E0892B29F00E94E50181110C94000016
:1003F0000895FC01A48DA80FB92FB11DA35ABF4FBA
:100400002C91848D90E001968F739927848FA68913
:10041000B7892C93A089B1898C91837080648C9367
:10042000938D848D981306C00288F389E02D808116
:100430008F7D80830895EF92FF920F931F93CF9348
:10044000DF93EC0181E0888F9B8D8C8D98131AC00F
:10045000E889F989808185FF15C09FB7F894EE89F6
:10046000FF896083E889F989808183708064808353
:100470009FBF81E090E0DF91CF911F910F91FF909E
:10048000EF900895F62E0B8D10E00F5F1F4F0F7346
:100490001127E02E8C8D8E110CC00FB607FCFACF01
:1004A000E889F989808185FFF5CFCE010E94F901A5
:1004B000F1CFEB8DEC0FFD2FF11DE35AFF4FF082D2
:1004C0009FB7F8940B8FEA89FB8980818062CFCF38
:1004D0000F931F93CF93DF938C01D0E0C0E0F8011E
:1004E000EC0FFD1F6491662341F083E393E00E94CB
:1004F0001B02892B11F02196F2CFCE01DF91CF9113
:100500001F910F910895CF93DF93EC01888D88237D
:10051000B9F0AA89BB89E889F9898C9185FD03C066
:10052000808186FD0DC00FB607FCF7CF8C9185FF4B
:10053000F2CF808185FFEDCFCE010E94F901E9CF96
:10054000DF91CF9108953FB7F89480912B0390915C
:100550002C03A0912D03B0912E0326B5A89B05C0B6
:100560002F3F19F00196A11DB11D3FBFBA2FA92F32
:10057000982F8827BC01CD01620F711D811D911D2F
:1005800042E0660F771F881F991F4A95D1F708959B
:100590008F929F92AF92BF92CF92DF92EF92FF9293
:1005A0004B015C010E94A3026B017C010E94A3022B
:1005B0006C197D098E099F09683E7340810591057C
:1005C000A8F321E0821A9108A108B10888EEC80EAC
:1005D00083E0D81EE11CF11C81149104A104B10434
:1005E00029F7FF90EF90DF90CF90BF90AF909F9052
:1005F0008F900895EF92FF920F931F93CF93DF9305
:10060000EC01F12CE12C10E000E0809102049091CB
:100610000304DC01ED91FC910084F185E02D099546
:10062000892B99F461E070E080E090E00E94C802BC
:10063000BFEFEB1AFB0A88EEE81683E0F80628F312
:100640008FEF37C002E010E0E0CF8091020490917C
:100650000304DC01ED91FC910284F385E02D099502
:100660000930110508F03CC0F801E75CFC4F0C9420
:10067000420B4203500360036003600360036503A1
:1006800067036A038F3E09F0C0CF18828983C801CF
:100690000196065F1F4F0034110550F48C01B5CF51
:1006A00028813981282B3983288321303F4E51F20C
:1006B0008EEFDF91CF911F910F91FF90EF900895F2
:1006C000FE01E00FF11F8083E2CF8E83E0CF1F8217
:1006D0008887DDCF2F813885282B38872F83D7CF88
:1006E000FE01E00FF11F80832F813885C801089734
:1006F0008217930761F680E0DCCF209131033091BF
:1007000032032817390771F490912F038091300339
:10071000981741F0E0912F03F0E0EA51FD4F8081FE
:1007200090E008958FEF9FEF08950895EF92FF9264
:100730000F931F93CF93DF93DC015C96ED90FC90B9
:100740005D97E114F10479F481E090E013969C93B5
:100750008E93129790E080E0DF91CF911F910F91DF
:10076000FF90EF9008955196ED91FC91529750961D
:100770008C915097982F90950FB75E962C915E971D
:10078000122F127021FD6095F8942081112319F128
:10079000282B2083E7012197F1F728E0462F50E02E
:1007A000308160FF1AC0382B3083E7012197F1F7C1
:1007B000BA0175956795215089F7112381F08081E1
:1007C000892380830FBF5C968D919C910197F1F7EF
:1007D00081E090E0C1CF2923DCCF3923E5CF9081A0
:1007E000892BEFCF2091310330913203281739073D
:1007F00071F48091300320912F0390E0805C9F4F33
:10080000821B910960E470E00E940C0B089590E057
:1008100080E0089520913103309132032817390781
:10082000B9F490912F0380913003981789F0E091EB
:100830002F03F0E0EA51FD4F808120912F0330E03B
:100840002F5F3F4F2F73332720932F0390E008959E
:100850008FEF9FEF089590E080E00895FC010190F4
:100860000020E9F73197AF01481B590BBC0183E326
:1008700093E00C947B018F929F92AF92BF920F9363
:100880001F93CF93DF93CDB7DEB7A1970FB6F89440
:10089000DEBF0FBECDBF19A2423008F44AE08E0180
:1008A0000F5D1F4F842E912CB12CA12CA50194011A
:1008B0000E94200BE62FB901CA01EA30F4F4E05D92
:1008C000D801EE938D01232B242B252B79F790E073
:1008D00080E0109719F0CD010E942E04A1960FB66A
:1008E000F894DEBF0FBECDBFDF91CF911F910F9166
:1008F000BF90AF909F908F900895E95CE1CFCF9328
:10090000DF930E942E04EC0184E291E00E942E0409
:100910008C0F9D1FDF91CF910895CF93DF93462FCA
:10092000BC0190E080E00E943B04EC0184E291E095
:100930000E942E048C0F9D1FDF91CF9108951F926E
:100940000F920FB60F9211242F933F934F935F9303
:100950006F937F938F939F93AF93BF93EF93FF9387
:1009600083E393E00E94F901FF91EF91BF91AF9172
:100970009F918F917F916F915F914F913F912F91B7
:100980000F900FBE0F901F9018951F920F920FB6E9
:100990000F9211242F938F939F93EF93FF93E091E6
:1009A0004303F09144038081E0914903F0914A03AD
:1009B00082FD1BC0908180914C038F5F8F732091CB
:1009C0004D03821741F0E0914C03F0E0ED5CFC4FE9
:1009D000958F80934C03FF91EF919F918F912F9171
:1009E0000F900FBE0F901F9018958081F4CF1F922B
:1009F0000F920FB60F9211242F933F938F939F93D3
:100A0000AF93BF938091270390912803A09129036E
:100A1000B0912A033091260323E0230F2D3758F598
:100A20000196A11DB11D2093260380932703909367
:100A30002803A0932903B0932A0380912B0390915C
:100A40002C03A0912D03B0912E030196A11DB11D81
:100A500080932B0390932C03A0932D03B0932E032C
:100A6000BF91AF919F918F913F912F910F900FBEAA
:100A70000F901F90189526E8230F0296A11DB11D17
:100A8000D2CF1F920F920FB60F9211242F933F9344
:100A90004F935F936F937F938F939F93AF93BF9386
:100AA000EF93FF93E0913103F0913203309749F0D7
:100AB000A685B7858585968D91FF14C09C91892365
:100AC000A1F4FF91EF91BF91AF919F918F917F9191
:100AD0006F915F914F913F912F910F900FBE0F90AB
:100AE0001F9018959C91892361F7A389B4899C91E3
:100AF0008589809589238C93868997890197F1F759
:100B0000608D718DA685B785558538E020E0CB01D5
:100B10000197F1F7822F90E095958795282F4C91BA
:100B2000452309F02068315091F7868D81FD20958D
:100B30008091300390E001968F73992730912F03B5
:100B4000381799F0A0913003B0E0AA51BD4F2C9313
:100B500080933003828D938D0197F1F7A389B48937
:100B60008C919589892B8C93ACCF868D8160868FF3
:100B7000F1CF90E0FC01E859FF4F2491FC01EC5DBE
:100B8000FE4F3491FC01E05FFE4FE491EE23C9F08B
:100B9000222339F0233001F1A8F4213019F1223059
:100BA00029F1F0E0EE0FFF1FEA5FFE4FA591B4912F
:100BB0008FB7F894EC91611126C030953E233C9399
:100BC0008FBF08952730A9F02830C9F0243049F7A5
:100BD000809180008F7D03C0809180008F7780930B
:100BE0008000DFCF84B58F7784BDDBCF84B58F7D68
:100BF000FBCF8091B0008F778093B000D2CF8091EF
:100C0000B0008F7DF9CF3E2BDACF0F931F93CF9398
:100C1000DF93109236031092350388EE93E0A0E044
:100C2000B0E08093370390933803A0933903B093D7
:100C30003A0324E031E0309334032093330325EC6E
:100C400030E03093400320933F0324EC30E03093B6
:100C500042032093410320EC30E03093440320937F
:100C6000430321EC30E0309346032093450322EC0C
:100C700030E0309348032093470326EC30E0309374
:100C80004A032093490310924C0310924D03109293
:100C90004E0310924F0310920B0410920A0480939B
:100CA0000C0490930D04A0930E04B0930F0486E1FE
:100CB00091E0909309048093080410921F0410920D
:100CC0001E0410922104109220041092230410920A
:100CD00022041092250410922404609126046E7F51
:100CE0006D7F609326046695617081E0682783E0DC
:100CF0000E94B90547E251E0FA01649183E191E075
:100D0000FC012491222399F030E0220F331FF901D6
:100D1000E450FF4FA591B491F901EA5FFE4F259190
:100D200034912FB7F8943C91632B6C932FBFFA0149
:100D3000449140931804FC018491E82FF0E0EE0FF9
:100D4000FF1FEA5FFE4F8591949190931A04809360
:100D5000190406E211E0F8012491C2E1D1E0FE019C
:100D600084918823C9F090E0880F991FFC01E4501A
:100D7000FF4FA591B491FC01EA5FFE4F459154915C
:100D80003FB7F8949C91822F809598239C93FA0109
:100D90009081892380833FBF8091260481FD04C018
:100DA00061E082E00E94B90588E094E022E02093AF
:100DB0001404F801049100931504FE01C491EC2F72
:100DC000F0E0EE0FFF1FEE50FF4F2591349130936E
:100DD0001704209316041092D7031092D603109292
:100DE000D9031092D80320E430E03093DB03209342
:100DF000DA031092DD031092DC034FEF5FEFBA01CC
:100E00004093DE035093DF036093E0037093E103AC
:100E10003093E3032093E20320E031EE3093E503C7
:100E20002093E4031092E6031092E7031092E80384
:100E30001092E9034093EA035093EB036093EC03B1
:100E40007093ED031092070410920604909305042A
:100E5000809304049093030480930204DF91CF9164
:100E60001F910F910895CF93DF93CDB7DEB7CF5485
:100E7000D1090FB6F894DEBF0FBECDBF789484B50C
:100E8000826084BD84B5816084BD85B5826085BD86
:100E900085B5816085BD80916E00816080936E0014
:100EA0001092810080918100826080938100809106
:100EB00081008160809381008091800081608093B7
:100EC00080008091B10084608093B1008091B00077
:100ED00081608093B00080917A00846080937A0072
:100EE00080917A00826080937A0080917A0081609C
:100EF00080937A0080917A00806880937A001092C3
:100F0000C100E0914303F091440302E00083E091CB
:100F10003F03F09140031082E0914103F0914203BE
:100F20008FEC808310924B03E0914703F0914803CC
:100F300016E01083E0914503F091460380818061C3
:100F40008083E0914503F09146038081886080832F
:100F5000E0914503F0914603808180688083E091B1
:100F60004503F091460380818F7D808364E670E0C5
:100F700080E090E00E94C80287E291E00E947F0436
:100F800068EE73E080E090E00E94C802E091060401
:100F9000F0910704309731F1A089B1890C93A089B1
:100FA000B1891C92A485B5851C92A685B78580E180
:100FB0008C93108EA489B5891C93A289B3898C91D6
:100FC00080618C93A289B3898C9188608C93A2896B
:100FD000B3898C9180688C930288F389E02D80819D
:100FE0008F7D8083E0910404F0910504309709F42B
:100FF00077C0138E128E118E108E178A168A82E495
:1010000090E0958F848F8485863108F03DC02FE075
:1010100030E0378B268B20E430E0318F208F27E2C1
:1010200030E0338F228F90916800883008F492C0AE
:1010300021E08E3008F420E081E001C0880F2A957D
:10104000EAF7892B8093680094852DE630E098308C
:1010500050F02BE630E09E3030F02CE630E0963158
:1010600010F030E020E0348B238B292F30E09830D3
:1010700008F072C081E001C0880F9A95EAF7858B6D
:10108000848D958D0197F1F7828D938D892B41F198
:101090004091310350913203E417F50709F14115EE
:1010A000510569F0DA0153962D913C91D9019C913B
:1010B000DA0155968C9180958923D9018C93868D80
:1010C0008E7F868F1092300310922F03F09332039D
:1010D000E0933103A389B4898C919589892B8C93F2
:1010E00065E070E080E090E00E94C8028091E60335
:1010F0009091E7032091E8033091E903EE24E39413
:101100006FEEF62EFA82E98201E00F8345E050E0AF
:10111000598748871FEF1B831C831D831E8343E170
:101120004A873B872C879D878E87CE0101960E9438
:10113000C800CE0101960E94FA028823D1F085E40E
:1011400091E00E947F0461E070E080E090E00E9406
:10115000C802F9CF84E075CF9E3040F428503109A1
:1011600081E001C0880F2A95EAF789CF2E50310916
:10117000F7CF8F81873019F78A858111E0CF88E614
:1011800091E00E947F0488ED90E00E94680284E272
:1011900091E00E942E04FA82E9820F8381E090E0C0
:1011A000998788871B831C831D831E838FE08A8712
:1011B000CE0101960E94C800CE0101960E94FA025B
:1011C00081115AC08F81873009F056C08B859C856C
:1011D0009827892798279093D7038093D6038D85E6
:1011E0009E859827892798279093D9038093D803C1
:1011F0008F8598899827892798279093DB03809378
:10120000DA0389899A899827892798279093DD039B
:101210008093DC036B897C898D899E890E94480BB1
:101220006093DE037093DF038093E0039093E10308
:101230008F89988D9827892798279093E303809327
:10124000E203009709F0E2C080E290E09093E303AC
:101250008093E203898D9A8D98278927982740E803
:1012600055E2849F9001859F300D949F300D11248D
:101270003093E5032093E4038DEC90E00E94680234
:1012800060E170E08091D6039091D7030E948D04B5
:1012900082EC90E00E94680260E170E08091D803E7
:1012A0009091D9030E948D0487EB90E00E94680220
:1012B0006AE070E08091DA039091DB030E948D0474
:1012C00086EA90E00E9468026AE070E08091DC03A8
:1012D0009091DD030E948D0485E990E00E946802F0
:1012E0006091DE037091DF038091E0039091E10350
:1012F00040E10E943B0484E291E00E942E0488E8D1
:1013000090E00E9468026AE070E08091E2039091B0
:10131000E3030E948D048CE790E00E9468026AE07B
:1013200070E08091E4039091E5030E948D0481E0D8
:101330009FEE9A83898381E08F8381E090E0998793
:1013400088878FEF8B838C838D838E838DE18A8753
:10135000CE0101960E94C800CE0101960E94FA02B9
:1013600081110CC08F81873049F48B859C8598272B
:10137000892798279093D5038093D4038091D40331
:101380009091D503892B09F053C082E891E00E9427
:101390002E0401E01FEEEE24E394F12C20E0C22E97
:1013A00020E0D22E32E0A32EB12C42E0542E56E0A3
:1013B000852E912C6624639477247A9484E0482EB9
:1013C0001A8309836F82F986E8867B827C827D821C
:1013D0007E826A86CE0101960E94C800CE010196E7
:1013E0000E94FA02811160C08F81873009F05CC0D1
:1013F0008A85813009F458C088F1823009F4EAC046
:10140000833009F4EAC08CE692E0B2C081309105E5
:1014100019F480E490E01ACF8230910519F480E845
:1014200090E014CF039709F015CF80E091E00ECF44
:1014300080ED91E00E947F048CEE91E00E942E04EA
:101440006091D4037091D50390E080E04AE00E945F
:101450003B048DEF91E00E947F049BCF88E092E0F7
:101460000E947F041A8309836F82B986A8867B82D3
:101470007C827D827E825A866B86CE0101960E9496
:10148000C800CE0101960E94FA0281110DC08F8121
:10149000873051F48A85863009F468C040F4882387
:1014A00071F0813009F0AFCF84E392E061C0873002
:1014B00019F0853109F0A7CF88E492E059C084E1A2
:1014C00092E00E947F042E961FAE1EAE2E97809152
:1014D000DA039091DB031A8309836F8299868886E9
:1014E0007B827C827D827E822B964FAE2B972C96C0
:1014F0006FAE2C972F969FAF2F9760968FAF609708
:1015000086E0FE01E65BFF4FDE011A9601900D9228
:101510008A95E1F7CE0101960E94C800CE0101969E
:101520000E94FA028111C0CF8F81873009F0BCCFB1
:101530008B859C859827892798279093D103809342
:10154000D0038D859E859827892798279093D3036C
:101550008093D2038A85882371F0813009F4A4CF67
:10156000893009F050CF8FEA92E002C084E292E025
:101570000E947F041DC08AE792E00E947F048FE8EA
:1015800092E00E942E046091D0037091D10390E00C
:1015900080E04AE00E943B048AE992E00E942E0427
:1015A0006AE070E08091D2039091D3030E948D0491
:1015B00062E370E080E090E00E94C802C114D104B0
:1015C00009F4FECE0E94E501882309F4F5CE0E94BD
:1015D0000000F0CE84EC92E0CBCF87ED92E0C8CF54
:1015E00086E191E09093090480930804809131038F
:1015F000909132038850944071F4E0911B04F09173
:101600001C04908180911D04809589238083109211
:10161000320310923103089597FB072E16F40094BD
:1016200007D077FD09D00E944F0B07FC05D03EF490
:10163000909581959F4F0895709561957F4F08957E
:10164000A1E21A2EAA1BBB1BFD010DC0AA1FBB1FC6
:10165000EE1FFF1FA217B307E407F50720F0A21B38
:10166000B30BE40BF50B661F771F881F991F1A94A5
:1016700069F760957095809590959B01AC01BD01CF
:10168000CF010895EE0FFF1F0590F491E02D09940E
:101690006927962769277827872778270895AA1B1F
:1016A000BB1B51E107C0AA1FBB1FA617B70710F04D
:1016B000A61BB70B881F991F5A95A9F7809590957F
:1016C000BC01CD01089510E0CDE9D0E004C0FE01D9
:1016D0000E94420B2196CE39D107C9F7F894FFCF6B
:1016E000000000001B027B01A8018302D901B701A1
:1016F000CB010000000096037B012B049503F2034D
:101700000A047D030D0A000A0A4164616672756964
:10171000742066696E676572206465746563742001
:101720007465737400446964206E6F742066696E1A
:10173000642066696E6765727072696E7420736585
:101740006E736F72203A2800466F756E642066696A
:101750006E6765727072696E742073656E736F72F6
:10176000210053656E736F7220646F65736E27740A
:1017700020636F6E7461696E20616E792066696E98
:101780006765727072696E7420646174612E205096
:101790006C656173652072756E20746865202765BD
:1017A0006E726F6C6C27206578616D706C652E00B1
:1017B00057616974696E6720666F722076616C6923
:1017C000642066696E6765722E2E2E0053656E73F7
:1017D0006F7220636F6E7461696E73200020746590
:1017E0006D706C6174657300496D6167652074612B
:1017F0006B656E00496D61676520636F6E7665721B
:1018000074656400496D61676520746F6F206D6554
:1018100073737900436F6D6D756E69636174696F81
:101820006E206572726F7200436F756C64206E6F0C
:10183000742066696E642066696E6765727072698D
:101840006E7420666561747572657300556E6B6E9B
:101850006F776E206572726F7200466F756E6420CE
:1018600061207072696E74206D6174636821004636
:101870006F756E64204944202300207769746820C6
:10188000636F6E666964656E6365206F66200044F1
:101890006964206E6F742066696E642061206D61DA
:1018A000746368004E6F2066696E676572206465B8
:1018B00074656374656400496D6167696E6720656E
:0618C00072726F7200005D
:00000001FF
