:100000000C949F000C94C7000C94C7000C946207DA
:100010000C9462070C9462070C94C7000C9464065D
:100020000C94C7000C94C7000C94C7000C94C70034
:100030000C94C7000C94C7000C94C7000C94C70024
:100040000C9418070C94C7000C94E6060C94C00698
:100050000C94C7000C94C7000C94C7000C94C70004
:100060000C94C7000C94C700000000002400270077
:100070002A0000000008000201000003040700003D
:100080000000000000000242617564207261746526
:100090003A20005061636B6574206C656E3A2000F5
:1000A00044657669636520616464726573733A20A0
:1000B000005365637572697479206C6576656C3A76
:1000C000200043617061636974793A200053797349
:1000D0002049443A203078005374617475733A2093
:1000E00030780052656164696E672073656E736F66
:1000F0007220706172616D6574657273000000003A
:100100000023002600290000000000250028002B05
:1001100000040404040404040402020202020203B0
:1001200003030303030102040810204080010204BA
:1001300008102001020408102000DA07990C11248D
:100140001FBECFEFD8E0DEBFCDBF12E0A0E0B1E030
:10015000E2E3FAE102C005900D92A63EB107D9F79D
:1001600024E0A6EEB2E001C01D92A833B207E1F789
:1001700010E0CEE9D0E004C02197FE010E94EB0C14
:10018000CD39D107C9F70E94CA080C940C0D0C9404
:100190000000DF92EF92FF920F931F93CF93DF93B4
:1001A000EC0180911304909114046981DC01ED91BC
:1001B000FC910190F081E02D0995809113049091BC
:1001C0001404DC01ED91FC910190F081E02D688137
:1001D00009958091130490911404DC01ED91FC9138
:1001E0000190F081E02D6A8109958091130490912E
:1001F0001404DC01ED91FC910190F081E02D6B8104
:1002000009958091130490911404DC01ED91FC9107
:100210000190F081E02D6C810995809113049091FB
:100220001404DC01ED91FC910190F081E02D6D81D1
:1002300009958091130490911404DC01ED91FC91D7
:100240000190F081E02D6E8109950F8118850E5F78
:100250001F4F8091130490911404E12EFF24DC01C0
:10026000ED91FC910190F081E02D6E2D099580912A
:10027000130490911404DC01ED91FC910190F08144
:10028000E02D602F09950E0D1F2D111D8E81080F79
:10029000111DD12C8091130490911404DC01ED9177
:1002A000FC910190F081E02DED2CF12C2F8138850F
:1002B000E216F30660F4EC0EFD1ED70119966C9160
:1002C0000995F7018185080F111DD394E3CF612FA4
:1002D00009958091130490911404DC01ED91FC9137
:1002E0000190F081E02D602FDF91CF911F910F9150
:1002F000FF90EF90DF900994AF92BF92CF92DF9280
:10030000EF92FF920F931F93CF93DF936C017B01CA
:100310008B01040F151FEB015E01AE18BF08C0175B
:10032000D10759F06991D601ED91FC910190F081CE
:10033000E02DC6010995892B79F7C501DF91CF9191
:100340001F910F91FF90EF90DF90CF90BF90AF90F3
:100350000895FC01538D448D252F30E0842F90E0CB
:10036000821B930B541710F0CF96089501970895B0
:10037000FC01918D828D981761F0A28DAE0FBF2F79
:10038000B11D5D968C91928D9F5F9F73928F90E0CF
:1003900008958FEF9FEF0895FC01918D828D98173E
:1003A00031F0828DE80FF11D858D90E008958FEF7B
:1003B0009FEF0895FC01918D228D892F90E0805C44
:1003C0009F4F821B91098F739927089584E493E0CE
:1003D0000E94DA0121E0892B09F420E0822F0895A0
:1003E00080E090E0892B29F00E94E60181110C94B5
:1003F00000000895FC01A48DA80FB92FB11DA35AC8
:10040000BF4F2C91848D90E001968F739927848F34
:10041000A689B7892C93A089B1898C918370806457
:100420008C93938D848D981306C00288F389E02DF8
:1004300080818F7D80830895EF92FF920F931F93A9
:10044000CF93DF93EC0181E0888F9B8D8C8D981387
:100450001AC0E889F989808185FF15C09FB7F89493
:10046000EE89FF896083E889F989808183708064DF
:1004700080839FBF81E090E0DF91CF911F910F912A
:10048000FF90EF900895F62E0B8D10E00F5F1F4F39
:100490000F731127E02E8C8D8E110CC00FB607FC48
:1004A000FACFE889F989808185FFF5CFCE010E94D6
:1004B000FA01F1CFEB8DEC0FFD2FF11DE35AFF4F49
:1004C000F0829FB7F8940B8FEA89FB898081806264
:1004D000CFCF0F931F93CF93DF938C01D0E0C0E079
:1004E000F801EC0FFD1F6491662341F084E493E072
:1004F0000E941C02892B11F02196F2CFCE01DF91D0
:10050000CF911F910F910895CF93DF93EC01888DC8
:100510008823B9F0AA89BB89E889F9898C9185FD7E
:1005200003C0808186FD0DC00FB607FCF7CF8C910C
:1005300085FFF2CF808185FFEDCFCE010E94FA01C9
:10054000E9CFDF91CF91089590E0FC01EE58FF4F85
:100550002491FC01EB5DFE4F3491FC01EF5EFE4FF8
:10056000E491EE23C9F0222339F0233001F1A8F4FD
:10057000213019F1223029F1F0E0EE0FFF1FE95F81
:10058000FE4FA591B4918FB7F894EC91611126C0FC
:1005900030953E233C938FBF08952730A9F0283033
:1005A000C9F0243049F7809180008F7D03C080918D
:1005B00080008F7780938000DFCF84B58F7784BDF4
:1005C000DBCF84B58F7DFBCF8091B0008F77809398
:1005D000B000D2CF8091B0008F7DF9CF3E2BDACF23
:1005E0009091000189130BC0E6E8F0E0E4919FEFE1
:1005F00090930001E13049F028F0E23061F060E0D2
:100600000C94A40210926E00FACF90916F009D7F1F
:1006100090936F00F4CF909170009D7F9093700045
:1006200091E09093B0009091B100987F9460909386
:10063000B1001092B300E3CFCF93DF9390E0FC01C1
:10064000EB5DFE4F24918F5E9E4FFC0184918823C9
:10065000D1F090E0880F991FFC01E859FF4FA59158
:10066000B491FC01E95FFE4FC591D49161110EC0B8
:100670009FB7F8948C91E22FE0958E238C9328817C
:10068000E223E8839FBFDF91CF9108958FB7F8945D
:10069000EC91E22BEC938FBFF6CF3FB7F8948091AB
:1006A000350390913603A0913703B091380326B5F6
:1006B000A89B05C02F3F19F00196A11DB11D3FBF9A
:1006C000BA2FA92F982F8827BC01CD01620F711D69
:1006D000811D911D42E0660F771F881F991F4A9563
:1006E000D1F708958F929F92AF92BF92CF92DF92EF
:1006F000EF92FF924B015C010E944D036B017C0164
:100700000E944D036C197D098E099F09683E734054
:1007100081059105A8F321E0821A9108A108B1088A
:1007200088EEC80E83E0D81EE11CF11C81149104F0
:10073000A104B10429F7FF90EF90DF90CF90BF9014
:10074000AF909F908F900895EF92FF920F931F9319
:10075000CF93DF93EC01F12CE12C10E000E08091CD
:10076000130490911404DC01ED91FC910084F18557
:10077000E02D0995892B99F461E070E080E090E02C
:100780000E947203BFEFEB1AFB0A88EEE81683E0C3
:10079000F80628F38FEF37C002E010E0E0CF809139
:1007A000130490911404DC01ED91FC910284F38513
:1007B000E02D09950930110508F03CC0F801ED5114
:1007C000FC4F0C94EB0CEC03FA030A040A040A0431
:1007D0000A040F04110414048F3E09F0C0CF1882DC
:1007E0008983C8010196065F1F4F0034110550F43C
:1007F0008C01B5CF28813981282B3983288321307A
:100800003F4E51F28EEFDF91CF911F910F91FF90EC
:10081000EF900895FE01E00FF11F8083E2CF8E83F9
:10082000E0CF1F828887DDCF2F813885282B38873E
:100830002F83D7CFFE01E00FF11F80832F813885F2
:10084000C80108978217930761F680E0DCCF2091FA
:100850004203309143032817390771F49091400304
:1008600080914103981741F0E0914003F0E0E0519E
:10087000FD4F808190E008958FEF9FEF08950895D8
:10088000EF92FF920F931F93CF93DF93DC015C965F
:10089000ED90FC905D97E114F10479F481E090E033
:1008A00013969C938E93129790E080E0DF91CF9106
:1008B0001F910F91FF90EF9008955196ED91FC914B
:1008C000529750968C915097982F90950FB75E96AF
:1008D0002C915E97122F127021FD6095F894208163
:1008E000112319F1282B2083E7012197F1F728E044
:1008F000462F50E0308160FF1AC0382B3083E7016B
:100900002197F1F7BA0175956795215089F7112361
:1009100081F08081892380830FBF5C968D919C91AB
:100920000197F1F781E090E0C1CF2923DCCF392393
:10093000E5CF9081892BEFCF209142033091430383
:100940002817390771F4809141032091400390E00A
:10095000805C9F4F821B910960E470E00E94B50C9F
:10096000089590E080E00895209142033091430380
:1009700028173907B9F490914003809141039817E3
:1009800089F0E0914003F0E0E051FD4F808120913B
:10099000400330E02F5F3F4F2F73332720934003F6
:1009A00090E008958FEF9FEF089590E080E0089524
:1009B0004F925F926F927F928F929F92AF92BF926F
:1009C000CF92DF92EF92FF921F93CF93DF93C3E01A
:1009D000D0E088248A94982C54014FE7642E4EE38B
:1009E000742E56E8C52E50E0D52E65E1462E61E006
:1009F000562E79E2E72E71E0F72E61E085E00E9445
:100A0000A402809100018430B1F4F601149117FD25
:100A1000ADC061E084E00E941C03112309F479C099
:100A2000123009F08AC08091B100887F8460809381
:100A3000B10089EFC8C08F3F09F098C084E080936F
:100A40000001F60114911F3F09F490C0113019F113
:100A500050F0123009F43CC017FD88C061E084E01A
:100A60000E941C03DDCF14BC15BC84B5826084BD1C
:100A700085B5816085BDF2018491E82FF0E0EE0F2D
:100A8000FF1FE95FFE4F85919491F7018491809358
:100A9000E70210E0BECF109280001092810080919A
:100AA00081008860809381008091810081608093C3
:100AB0008100F2018491E82FF0E0EE0FFF1FE95F63
:100AC000FE4F85919491F70184918093E602A1CF26
:100AD0001092B0001092B1008091B00082608093BB
:100AE000B0008091B10081608093B100F2018491E7
:100AF000E82FF0E0EE0FFF1FE95FFE4F8591949124
:100B000090933A0380933903F701849180933B03D8
:100B100080CF85B5887F836085BD89EF87BD809252
:100B2000EC029092ED02A092EE02B092EF02809160
:100B30006E00826080936E0019C01130E9F58091DB
:100B40008100887F8160809381007092890060922B
:100B500088008092E8029092E902A092EA02B092A4
:100B6000EB0280916F00826080936F0064E670E01A
:100B700080E090E00E94720360E085E00E94A402A1
:100B800084E00E94F00264E670E080E090E00E9461
:100B90007203219709F031CFDF91CF911F91FF9020
:100BA000EF90DF90CF90BF90AF909F908F907F900D
:100BB0006F905F904F900895123021F01111D6CFB1
:100BC0008FE7ACCF8FE78093B30080923C03909285
:100BD0003D03A0923E03B0923F038091700082607B
:100BE00080937000C3CFFC0101900020E9F731979A
:100BF000AF01481B590BBC0184E493E00C947C01C9
:100C00008F929F92AF92BF920F931F93CF93DF93D8
:100C1000CDB7DEB7A1970FB6F894DEBF0FBECDBF3C
:100C200019A2423008F44AE08E010F5D1F4F842E56
:100C3000912CB12CA12CA50194010E94C90CE62F86
:100C4000B901CA01EA30F4F4E05DD801EE938D01F8
:100C5000232B242B252B79F790E080E0109719F0B7
:100C6000CD010E94F305A1960FB6F894DEBF0FBE2A
:100C7000CDBFDF91CF911F910F91BF90AF909F900B
:100C80008F900895E95CE1CFCF93DF930E94F30545
:100C9000EC0185E291E00E94F3058C0F9D1FDF912E
:100CA000CF910895CF93DF93462FBC0190E080E071
:100CB0000E940006EC0185E291E00E94F3058C0F92
:100CC0009D1FDF91CF9108951F920F920FB60F9243
:100CD00011242F933F934F935F936F937F938F9341
:100CE0009F93AF93BF93EF93FF9380913C039091B9
:100CF0003D03A0913E03B0913F03892B8A2B8B2BA0
:100D0000D1F190913B03E0913903F0913A03808156
:100D10008927808380913C0390913D03A0913E03FD
:100D2000B0913F03181619061A061B069CF4809111
:100D30003C0390913D03A0913E03B0913F03019786
:100D4000A109B10980933C0390933D03A0933E0316
:100D5000B0933F03FF91EF91BF91AF919F918F911E
:100D60007F916F915F914F913F912F910F900FBEA7
:100D70000F901F901895809100010E94F002EACF19
:100D80001F920F920FB60F9211242F933F934F9300
:100D90005F936F937F938F939F93AF93BF93EF93E3
:100DA000FF9384E493E00E94FA01FF91EF91BF91D9
:100DB000AF919F918F917F916F915F914F913F91F3
:100DC0002F910F900FBE0F901F9018951F920F92AA
:100DD0000FB60F9211242F938F939F93EF93FF934E
:100DE000E0915403F09155038081E0915A03F09112
:100DF0005B0382FD1BC0908180915D038F5F8F73C9
:100E000020915E03821741F0E0915D03F0E0EC5B1E
:100E1000FC4F958F80935D03FF91EF919F918F9190
:100E20002F910F900FBE0F901F9018958081F4CFD7
:100E30001F920F920FB60F9211242F933F938F930F
:100E40009F93AF93BF938091310390913203A09110
:100E50003303B09134033091300323E0230F2D3757
:100E600058F50196A11DB11D2093300380933103E5
:100E700090933203A0933303B093340380913503EE
:100E800090913603A0913703B09138030196A11DCC
:100E9000B11D8093350390933603A0933703B0932D
:100EA0003803BF91AF919F918F913F912F910F90F8
:100EB0000FBE0F901F90189526E8230F0296A11DD4
:100EC000B11DD2CF1F920F920FB60F9211242F9304
:100ED0003F934F935F936F937F938F939F93AF93C2
:100EE000BF93EF93FF93E0914203F0914303309758
:100EF00049F0A685B7858585968D91FF14C09C9194
:100F00008923A1F4FF91EF91BF91AF919F918F91B0
:100F10007F916F915F914F913F912F910F900FBEF5
:100F20000F901F9018959C91892361F7A389B4892C
:100F30009C918589809589238C93868997890197CF
:100F4000F1F7608D718DA685B785558538E020E075
:100F5000CB010197F1F7822F90E095958795282F87
:100F60004C91452309F02068315091F7868D81FD21
:100F700020958091410390E001968F7399273091DD
:100F80004003381799F0A0914103B0E0A051BD4F44
:100F90002C9380934103828D938D0197F1F7A38960
:100FA000B4898C919589892B8C93ACCF868D816087
:100FB000868FF1CF109247031092460388EE93E09C
:100FC000A0E0B0E08093480390934903A0934A03C4
:100FD000B0934B0325E031E0309345032093440365
:100FE00025EC30E0309351032093500324EC30E0A3
:100FF000309353032093520320EC30E03093550399
:101000002093540321EC30E0309357032093560390
:1010100022EC30E0309359032093580326EC30E063
:1010200030935B0320935A0310925D0310925E038A
:1010300010925F031092600310921C0410921B0424
:1010400080931D0490931E04A0931F04B09320046A
:1010500087E191E090931A04809319041092300470
:1010600010922F0410923204109231041092340422
:1010700010923304109236041092350460913704B4
:101080006E7F6D7F609337046695617081E068279D
:1010900083E00E94A40261E083E00E941C03E8E276
:1010A000F1E0E491E0932904E4E1F1E0E491F0E07F
:1010B000EE0FFF1FE95FFE4F8591949190932B04F3
:1010C00080932A0460E082E00E941C038091370430
:1010D00081FD04C061E082E00E94A40289E194E005
:1010E00022E020932504E7E2F1E0E491E093260476
:1010F000E3E1F1E0E491F0E0EE0FFF1FE350FF4F7A
:101100002591349130932804209327041092E8030A
:101110001092E7031092EA031092E90320E430E012
:101120003093EC032093EB031092EE031092ED0347
:101130004FEF5FEFBA014093EF035093F0036093DA
:10114000F1037093F2033093F4032093F30320E050
:1011500031EE3093F6032093F5031092F7031092CB
:10116000F8031092F9031092FA034093FB03509393
:10117000FC036093FD037093FE0310921804109219
:10118000170490931604809315049093140480938D
:1011900013040895CF93DF93CDB7DEB7CF54D109B1
:1011A0000FB6F894DEBF0FBECDBF789484B58260D1
:1011B00084BD84B5816084BD85B5826085BD85B5FB
:1011C000816085BD80916E00816080936E00109279
:1011D00081008091810082608093810080918100F4
:1011E0008160809381008091800081608093800085
:1011F0008091B10084608093B1008091B0008160E3
:101200008093B00080917A00846080937A0080910E
:101210007A00826080937A0080917A008160809366
:101220007A0080917A00806880937A001092C100E1
:10123000E0915403F091550302E00083E0915003E4
:10124000F09151031082E0915203F09153038FEC1F
:10125000808310925C03E0915803F091590316E0EB
:101260001083E0915603F091570380818061808361
:10127000E0915603F0915703808188608083E0916C
:101280005603F0915703808180688083E091560374
:10129000F091570380818F7D808364E670E080E069
:1012A00090E00E94720388E291E00E94440668EE9A
:1012B00073E080E090E00E947203E0911704F091E7
:1012C0001804309731F1A089B1890C93A089B189B4
:1012D0001C92A485B5851C92A685B78580E18C9368
:1012E000108EA489B5891C93A289B3898C918061E1
:1012F0008C93A289B3898C9188608C93A289B389DD
:101300008C9180688C930288F389E02D80818F7D99
:101310008083E0911504F0911604309709F477C0AA
:10132000138E128E118E108E178A168A82E490E028
:10133000958F848F8485863108F03DC02FE030E0A2
:10134000378B268B20E430E0318F208F27E230E08E
:10135000338F228F90916800883008F492C021E08A
:101360008E3008F420E081E001C0880F2A95EAF76A
:10137000892B8093680094852DE630E0983050F0FA
:101380002BE630E09E3030F02CE630E0963110F065
:1013900030E020E0348B238B292F30E0983008F0A8
:1013A00072C081E001C0880F9A95EAF7858B848D21
:1013B000958D0197F1F7828D938D892B41F14091A5
:1013C000420350914303E417F50709F14115510514
:1013D00069F0DA0153962D913C91D9019C91DA0183
:1013E00055968C9180958923D9018C93868D8E7F1B
:1013F000868F1092410310924003F0934303E093D1
:101400004203A389B4898C919589892B8C9365E0DB
:1014100070E080E090E00E9472038091F703909169
:10142000F8032091F9033091FA03EE24E3946FEE70
:10143000F62EFA82E98201E00F8345E050E05987F9
:1014400048871FEF1B831C831D831E8343E14A874C
:101450003B872C879D878E87CE0101960E94C9000D
:10146000CE0101960E94A4038823D1F086E491E086
:101470000E94440661E070E080E090E00E94720308
:10148000F9CF84E075CF9E3040F42850310981E0D7
:1014900001C0880F2A95EAF789CF2E503109F7CF7E
:1014A0008F81873019F78A858111E0CF89E691E035
:1014B0000E94440683EE90E00E94690285E291E07A
:1014C0000E94F305FA82E9820F8381E090E0998718
:1014D00088871B831C831D831E838FE08A87CE0130
:1014E00001960E94C900CE0101960E94A4038111B9
:1014F0005AC08F81873009F056C08B859C8598270C
:10150000892798279093E8038093E7038D859E852C
:101510009827892798279093EA038093E9038F857A
:1015200098899827892798279093EC038093EB0359
:1015300089899A899827892798279093EE03809321
:10154000ED036B897C898D899E890E94F10C6093E3
:10155000EF037093F0038093F1039093F2038F896C
:10156000988D9827892798279093F4038093F30305
:10157000009709F0EEC080E290E09093F40380932E
:10158000F303898D9A8D98278927982740E855E29B
:10159000849F9001859F300D949F300D11243093CE
:1015A000F6032093F50388ED90E00E94690260E164
:1015B00070E08091E7039091E8030E9452068DEC61
:1015C00090E00E94690260E170E08091E9039091EF
:1015D000EA030E94520682EC90E00E9469026AE0EF
:1015E00070E08091EB039091EC030E94520681EB36
:1015F00090E00E9469026AE070E08091ED039091B2
:10160000EE030E94520680EA90E00E946902609117
:10161000EF037091F0038091F1039091F20340E1A8
:101620000E94000685E291E00E94F30583E990E0C4
:101630000E9469026AE070E08091F3039091F403E4
:101640000E94520687E890E00E9469026AE070E01A
:101650008091F5039091F6030E94520681E09FEE7F
:101660009A83898381E08F8381E090E099878887DE
:101670008FEF8B838C838D838E838DE18A87CE0160
:1016800001960E94C900CE0101960E94A403811117
:101690000CC08F81873049F48B859C8598278927DA
:1016A00098279093E6038093E5038091E50390915A
:1016B000E603892B09F05FC083E891E00E94F305FF
:1016C00061E085E00E941C0360E085E00E94A402C6
:1016D00061E084E00E941C0301E01FEEEE24E3942D
:1016E000F12C20E0C22E20E0D22E32E0A32EB12C2D
:1016F00042E0542E56E0852E912C66246394772484
:101700007A9484E0482E1A8309836F82F986E886EA
:101710007B827C827D827E826A86CE0101960E94D7
:10172000C900CE0101960E94A403811160C08F817F
:10173000873009F05CC08A85813009F458C088F18F
:10174000823009F4F0C0833009F4F0C08DE692E0F5
:10175000B6C08130910519F480E490E00ECF82305C
:10176000910519F480E890E008CF039709F009CFBC
:1017700080E091E002CF81ED91E00E9444068DEE81
:1017800091E00E94F3056091E5037091E60390E01B
:1017900080E04AE00E9400068EEF91E00E9444063D
:1017A0008FCF89E092E00E9444061A8309836F82FA
:1017B000B986A8867B827C827D827E825A866B86F1
:1017C000CE0101960E94C900CE0101960E94A40399
:1017D00081110DC08F81873051F48A85863009F4DC
:1017E0006CC040F4882371F0813009F0AFCF85E3FD
:1017F00092E065C0873019F0853109F0A7CF89E400
:1018000092E05DC085E192E00E9444062E961FAEF4
:101810001EAE2E978091EB039091EC031A830983FF
:101820006F82998688867B827C827D827E822B96DF
:101830004FAE2B972C966FAE2C972F969FAF2F976E
:1018400060968FAF609786E0FE01E65BFF4FDE019A
:101850001A9601900D928A95E1F7CE0101960E94A9
:10186000C900CE0101960E94A4038111C0CF8F81CF
:10187000873009F0BCCF8B859C85982789279827CE
:101880009093E2038093E1038D859E8598278927B5
:1018900098279093E4038093E3038A85882391F04B
:1018A000813009F4A4CF893009F050CF0E94D804C8
:1018B0000E94D80480EB92E002C085E292E00E9490
:1018C00044061FC08BE792E00E9444060E94D804A1
:1018D00080E992E00E94F3056091E1037091E203D8
:1018E00090E080E04AE00E9400068BE992E00E94CE
:1018F000F3056AE070E08091E3039091E4030E94B5
:10190000520662E370E080E090E00E947203C1142E
:10191000D10409F4F8CE0E94E601882309F4EFCE41
:101920000E940000EACE85EC92E0C9CF88ED92E0FB
:10193000C6CF87E191E090931A04809319048091B7
:101940004203909143038951944071F4E0912C0437
:10195000F0912D04908180912E04809589238083BD
:101960001092430310924203089597FB072E16F43A
:10197000009407D077FD09D00E94F80C07FC05D031
:101980003EF4909581959F4F0895709561957F4F96
:101990000895A1E21A2EAA1BBB1BFD010DC0AA1FB0
:1019A000BB1FEE1FFF1FA217B307E407F50720F0C8
:1019B000A21BB30BE40BF50B661F771F881F991F43
:1019C0001A9469F760957095809590959B01AC018C
:1019D000BD01CF010895EE0FFF1F0590F491E02D9A
:1019E00009946927962769277827872778270895F4
:1019F000AA1BBB1B51E107C0AA1FBB1FA617B70735
:101A000010F0A61BB70B881F991F5A95A9F7809550
:101A10009095BC01CD01089510E0CEE9D0E004C05E
:101A2000FE010E94EB0C2196CF39D107C9F7F8943B
:021A3000FFCFE6
:101A3200FF000000001C027C01A9018402DA01B847
:101A420001CC010000000040047C01D5043F049C4D
:101A520004B40427040D0A000A0A4164616672751F
:101A620069742066696E6765722064657465637463
:101A7200207465737400446964206E6F7420666913
:101A82006E642066696E6765727072696E74207327
:101A9200656E736F72203A2800466F756E64206619
:101AA200696E6765727072696E742073656E736FAA
:101AB20072210053656E736F7220646F65736E27B7
:101AC2007420636F6E7461696E20616E792066693D
:101AD2006E6765727072696E7420646174612E2023
:101AE200506C656173652072756E2074686520277D
:101AF200656E726F6C6C27206578616D706C652EF7
:101B02000057616974696E6720666F722076616C36
:101B120069642066696E6765722E2E2E0053656EAB
:101B2200736F7220636F6E7461696E73200020742C
:101B3200656D706C6174657300496D6167652074D1
:101B4200616B656E00496D61676520636F6E7665D6
:101B52007274656400496D61676520746F6F206DF2
:101B62006573737900436F6D6D756E696361746936
:101B72006F6E206572726F7200436F756C64206EB7
:101B82006F742066696E642066696E676572707232
:101B9200696E7420666561747572657300556E6B4B
:101BA2006E6F776E206572726F7200466F756E642B
:101BB2002061207072696E74206D61746368210007
:101BC200466F756E6420494420230020776974684B
:101BD20020636F6E666964656E6365206F662000C0
:101BE200446964206E6F742066696E642061206DA2
:101BF20061746368004E6F2066696E676572206467
:101C02006574656374656400496D6167696E672018
:061C12006572726F7200A2
:00000001FF
