:100000000C9463000C948B000C948B000C948B006C
:100010000C948B000C948B000C948B000C94A8080F
:100020000C948B000C948B000C948B000C94A60900
:100030000C948B000C948B000C948B000C948B0014
:100040000C945C090C948B000C942A090C94040900
:100050000C948B000C948B000C948B000C948B00F4
:100060000C948B000C948B000000000025002800ED
:100070002B000200000000240027002A00000000DE
:1000800000230026002900040404040404040402DC
:100090000202020202030303030303010204081025
:1000A00020408001020408102001020408102000F2
:1000B0000000080002010000030407000000000027
:1000C000000000000A0A11241FBECFEFD8E0DEBFF7
:1000D000CDBF11E0A0E0B1E0ECE8FEE102C0059088
:1000E0000D92AE39B107D9F722E0AEE9B1E001C017
:1000F0001D92AF38B207E1F710E0C3E6D0E004C0CC
:100100002197FE010E943B0DC236D107C9F70E941C
:10011000410A0C94440F0C9400008CBD9DBD0895C1
:10012000AF92BF92CF92DF92EF92FF920F931F9305
:10013000CF93DF936C017B018B01040F151FEB0143
:100140005E01AE18BF08C017D10759F06991D601FA
:10015000ED91FC910190F081E02DC6010995892B6C
:1001600079F7C501DF91CF911F910F91FF90EF902B
:10017000DF90CF90BF90AF900895FC01538D448DD8
:10018000252F30E0842F90E0821B930B541710F042
:10019000CF96089501970895FC01918D828D98174F
:1001A00061F0A28DAE0FBF2FB11D5D968C91928D27
:1001B0009F5F9F73928F90E008958FEF9FEF089558
:1001C000FC01918D828D981731F0828DE80FF11D21
:1001D000858D90E008958FEF9FEF0895FC01918D3C
:1001E000228D892F90E0805C9F4F821B91098F7335
:1001F000992708958EED91E00E94EE0021E0892B71
:1002000009F420E0822F089580E090E0892B29F006
:100210000E94FA0081110C9400000895FC01A48D45
:10022000A80FB92FB11DA35ABF4F2C91848D90E018
:1002300001968F739927848FA689B7892C93A089FB
:10024000B1898C91837080648C93938D848D981385
:1002500006C00288F389E02D80818F7D8083089518
:10026000EF92FF920F931F93CF93DF93EC0181E006
:10027000888F9B8D8C8D98131AC0E889F9898081AD
:1002800085FF15C09FB7F894EE89FF896083E889E0
:10029000F98980818370806480839FBF81E090E0D2
:1002A000DF91CF911F910F91FF90EF900895F62E5F
:1002B0000B8D10E00F5F1F4F0F731127E02E8C8DF9
:1002C0008E110CC00FB607FCFACFE889F98980813E
:1002D00085FFF5CFCE010E940E01F1CFEB8DEC0F23
:1002E000FD2FF11DE35AFF4FF0829FB7F8940B8F5B
:1002F000EA89FB8980818062CFCFCF93DF93EC01C5
:10030000888D8823B9F0AA89BB89E889F9898C91FD
:1003100085FD03C0808186FD0DC00FB607FCF7CFB9
:100320008C9185FFF2CF808185FFEDCFCE010E94B9
:100330000E01E9CFDF91CF910895833081F028F449
:10034000813099F08230A9F008958730A9F0883083
:10035000C9F08430B1F4809180008F7D03C080911A
:1003600080008F7780938000089584B58F7784BD57
:10037000089584B58F7DFBCF8091B0008F778093F7
:10038000B00008958091B0008F7DF9CF1F93CF9377
:10039000DF93282F30E0F901E155FF4F8491F901F7
:1003A000E556FF4FD491F901E957FF4FC491CC2393
:1003B000A9F0162F81110E949D01EC2FF0E0EE0FA5
:1003C000FF1FE859FF4FA591B4918FB7F894EC91B6
:1003D000111108C0D095DE23DC938FBFDF91CF9140
:1003E0001F910895DE2BF8CF9091000189130BC067
:1003F000E2E7F0E0E4919FEF90930001E13049F0F3
:1004000028F0E23061F060E00C94C60110926E00BA
:10041000FACF90916F009D7F90936F00F4CF9091F1
:1004200070009D7F9093700091E09093B000909148
:10043000B100987F94609093B1001092B300E3CF25
:10044000CF93DF9390E0FC01E556FF4F249189574D
:100450009F4FFC0184918823D1F090E0880F991F71
:10046000FC01ED58FF4FA591B491FC01E859FF4FF5
:10047000C591D49161110EC09FB7F8948C91E22F71
:10048000E0958E238C932881E223E8839FBFDF9140
:10049000CF9108958FB7F894EC91E22BEC938FBF36
:1004A000F6CF3FB7F8948091CE019091CF01A09103
:1004B000D001B091D10126B5A89B05C02F3F19F0FE
:1004C0000196A11DB11D3FBFBA2FA92F982F8827D4
:1004D000BC01CD01620F711D811D911D42E0660FAF
:1004E000771F881F991F4A95D1F708958F929F9281
:1004F000AF92BF92CF92DF92EF92FF924B015C01DD
:100500000E9451026B017C010E9451026C197D090D
:100510008E099F09683E734081059105A8F321E08B
:10052000821A9108A108B10888EEC80E83E0D81E8F
:10053000E11CF11C81149104A104B10429F7FF907E
:10054000EF90DF90CF90BF90AF909F908F900895E5
:10055000BC016E5F7F4FDC01ED91FC910190F08159
:10056000E02D40E0099591E0811190E0892F0895F8
:1005700008958EBD00000DB407FEFDCF8EB5089521
:10058000DF92EF92FF920F931F93CF93DF937C0143
:10059000062FD42E152F80E590E00E948D0060E09C
:1005A000F70186850E94C60182E10E94B902CD2D25
:1005B000D12F0C0F1D2F111DC017D10721F08991CC
:1005C0000E94B902F9CF61E0F7018685DF91CF91F2
:1005D0001F910F91FF90EF90DF900C94C6011F9335
:1005E000CF93DF93EC01162F80E590E00E948D0001
:1005F00060E08E850E94C601812F80680E94B9024A
:1006000080E00E94B902182F61E08E850E94C60129
:10061000812FDF91CF911F9108950F931F93CF9357
:10062000DF93EC01062F142F80E590E00E948D00EF
:1006300060E08E850E94C601802F0E94B902812F42
:100640000E94B90261E08E85DF91CF911F910F91D9
:100650000C94C601CF92DF92EF92FF920F931F93FB
:10066000CF93DF93EC016B01F42E890140E062E04F
:100670000E940D0344E06AE0CE010E940D0340E8B1
:1006800064E1CE010E940D03A6016F2DCE010E94F0
:10069000C00243E062E0CE010E940D038FB7F894E0
:1006A000C090DA01D090DB01E090DC01F090DD0138
:1006B0008FBF89E5C80ED11CE11CF11C6AE0CE0198
:1006C0000E94EF0282FF1BC040E062E0CE010E9468
:1006D0000D0364E4CE010E94EF02F801808362E41E
:1006E000CE010E94EF02F801818380E0DF91CF917B
:1006F0001F910F91FF90EF90DF90CF9008952FB74B
:10070000F8948091DA019091DB01A091DC01B09125
:10071000DD012FBF8C159D05AE05BF0578F283E086
:10072000E5CF2F923F924F925F926F927F928F927E
:100730009F92AF92CF92DF92EF92FF920F931F930F
:10074000CF93DF9300D0CDB7DEB74C012B01D42E71
:10075000390180E0E114F10411F0F70180813C2CB3
:10076000329490EF3922380E40E062E0C4010E94DA
:100770000D034FE768E0C4010E940D0340E864E107
:10078000C4010E940D03A2016D2DC4010E94C0028C
:10079000432D6AE1C4010E940D034CE062E0C401F4
:1007A0000E940D036AE1C4010E94EF02482F4068D5
:1007B0006AE1C4010E940D038FB7F8942090DA011A
:1007C0003090DB014090DC015090DD018FBFF4E2FE
:1007D0002F0E311C411C511C68E0C4010E94EF0225
:1007E000982F907309F0C0C080FF15C083E00F9070
:1007F0000F90DF91CF911F910F91FF90EF90DF90BD
:10080000CF90AF909F908F907F906F905F904F9020
:100810003F902F9008952FB7F8948091DA0190912E
:10082000DB01A091DC01B091DD012FBF82159305A2
:10083000A405B50588F2DACF6114710409F469C022
:100840000115110509F465C064E1C4010E94EF02BD
:10085000382EF8018081831508F480C0308233205F
:10086000E1F180E590E00E948D0060E0F401868572
:100870000E94C6013A9482E90E94B902CC20B1F0EC
:100880008FEF90E09C0102C0220F331FCA94E2F761
:10089000690182E90E94B9029C2D9095F3012081A3
:1008A00092238C21982B9083CC24C39423014C0C4D
:1008B000511CC31440F482E90E94B902F2018193F1
:1008C0002F01C394F6CF80E00E94B902F201808329
:1008D00061E0F40186850E94C60168E1C4010E94BE
:1008E000EF028770E114F10411F0F701808323FC1B
:1008F00037C061147104B1F10115110599F1AA20F5
:1009000089F1F8014081413031F4843029F58FEFCD
:100910006ECF80E0ECCF4230F8F081111DC0425024
:100920009E012F5F3F4FB301C4010E942A03811132
:100930005ECFF8019081690E711CF301329720811E
:100940009981291309C0F1E06F1A7108F301208120
:100950009A81291709F44BCF87E049CF84E047CF2C
:1009600082E045CF80E043CF6CE0C4010E94EF02FB
:10097000282E837109F460CF81E039CF8F929F9246
:10098000AF92CF92EF92FF920F931F93CF93DF938B
:1009900000D000D01F92CDB7DEB74C0182E08D832E
:1009A00040E064E2C4010E940D0340E066E2C4013D
:1009B0000E940D0346E268E4C4010E940D0386E232
:1009C0008B838D818230D8F16CE1C4010E94EF02EB
:1009D000482F4F776CE1C4010E940D0387E08C83A0
:1009E000A12CC12CCE0104967C018E010B5F1F4F00
:1009F0009E012F5F3F4F41E0BE016D5F7F4FC401FD
:100A00000E949103982F811117C08D818230B9F413
:100A10008C81811114C081E00F900F900F900F9086
:100A20000F90DF91CF911F910F91FF90EF90CF909A
:100A3000AF909F908F90089581E0923069F380E0AD
:100A4000EBCF2F923F924F925F926F927F928F9255
:100A50009F92AF92BF92CF92DF92EF92FF920F934D
:100A60001F93CF93DF93CDB7DEB72D970FB6F894D2
:100A7000DEBF0FBECDBF16E0413508F04AC1342EAF
:100A80003B014C016CE10E94EF02482F4F776CE173
:100A9000C4010E940D0383E98983332029F081E09A
:100AA000F3019081953008F480E022242394B12C46
:100AB0009B2D990F990F990FD32CD91AD7FCD12CB4
:100AC00032E0882319F098E89B8333E021E09D2DE4
:100AD000977009F420E09D2D959595959595290F92
:100AE000C9F094E0811193E0291708F4922FEB2DBF
:100AF000F0E03196E60DF71D232F4191A1E0B0E023
:100B0000AC0FBD1FA20FB11D4C932F5F422F431B93
:100B1000491798F3882311F0F8E0DF0E8FE18D1567
:100B20000CF082C090E79A838B819C8189279D81FC
:100B300089279E8189278F839E01285F3F4F47E049
:100B4000BE016F5F7F4FC4010E942A03182F8111DD
:100B5000E0C01A86E3E0EB87DC86CE0107962C0125
:100B600099E09D87CA844C2D4295407F4C0D6AE1E7
:100B7000C4010E940D03A12CCE010A967C018E01B6
:100B8000055F1F4F92014D85BE016F5F7F4FC4010E
:100B90000E949103182F823009F065C06CE1C401F6
:100BA0000E94EF0285FDB5C08F7109F480E2282F05
:100BB00030E04D2DDD0C550B421753070CF09DC056
:100BC000D82EE82FE595E595E595EF5F982F97707E
:100BD00081E009F480E0E80F81E090E08C0F9D1F38
:100BE0008E0F911DFC01215031092770332781E0C0
:100BF00090E002C0880F991F2A95E2F79C0180813E
:100C0000822B80838BCF85E98983332031F081E08B
:100C1000F3019081983008F04BCF80E049CF87E90D
:100C2000898326E0B22EF9CF9D2D97709A878D2D5E
:100C30008595859585958E5F282F2295207F290F94
:100C40002A8321E0911101C020E0280F2D87442440
:100C50004394512C4C0E5D1E480E511CE9E0E81BDC
:100C6000EB87DC867FCF811154C080E2D82E9C8533
:100C700090320CF457CF8B81883809F040C083E064
:100C800093E0EB2DF0E03196E60DF71D980FA1E013
:100C9000B0E0AC0FBD1FA80FB11D2C9121938F5F49
:100CA0008913F5CFBB84E3E0BE124DC08A85811164
:100CB0004AC09E012D5F3F4F41E0B201C4010E9436
:100CC0002A03182F811125C09B81F201818198137D
:100CD0003CC09C818281981338C0808182FF12C001
:100CE0002394F2E02F1609F48ECF83E0281609F43E
:100CF00096CF91E0291609F4CECE15E00AC082E025
:100D000094E0BFCFF3018387822D880F820D8F5F20
:100D10008083812F2D960FB6F894DEBF0FBECDBF16
:100D2000DF91CF911F910F91FF90EF90DF90CF90C7
:100D3000BF90AF909F908F907F906F905F904F90FB
:100D40003F902F90089511E0E4CF17E0E2CFCF93CA
:100D500061E085E00E94C601809100018430B1F01D
:100D60008F3F59F164E670E080E090E00E947602E7
:100D700060E085E00E94C60184E00E94F40164E620
:100D800070E080E090E0CF910C947602E2E7F0E032
:100D9000C491C7FDE7CF61E084E00E942002CC232C
:100DA00009F479C0C23009F08DC08091B100887F0C
:100DB00084608093B10089EFABC084E08093000130
:100DC000E2E7F0E0C491CF3F69F2C13021F150F089
:100DD000C23009F43EC0C7FDC5CF61E084E00E9487
:100DE0002002E0CF14BC15BC84B5826084BD85B5FB
:100DF000816085BDEBE8F0E0E491F0E0EE0FFF1FCD
:100E0000E859FF4F85919491EFE9F0E0E491E09388
:100E10009F01C0E0C0CF10928000109281008091AD
:100E2000810088608093810080918100816080933F
:100E30008100EBE8F0E0E491F0E0EE0FFF1FE859ED
:100E4000FF4F85919491EFE9F0E0E491E0939E01EA
:100E5000A2CF1092B0001092B1008091B0008260D9
:100E60008093B0008091B10081608093B100EBE885
:100E7000F0E0E491F0E0EE0FFF1FE859FF4F85919D
:100E800094919093D3018093D201EFE9F0E0E49143
:100E9000E093D40180CF85B5887F836085BD89EFDD
:100EA00087BD8FEF9FEFDC018093A4019093A50194
:100EB000A093A601B093A70180916E0082608093F9
:100EC0006E0050CFC130E9F480918100887F81604D
:100ED000809381008FE79EE3909389008093880040
:100EE0008FEF9FEFDC018093A0019093A101A0936D
:100EF000A201B093A30180916F00826080936F0084
:100F000031CFC23021F0C1112DCF8FE7C9CF8FE78C
:100F10008093B3008FEF9FEFDC018093D501909316
:100F2000D601A093D701B093D80180917000826060
:100F30008093700017CFFC0101900020E9F73197F2
:100F4000AF01481B590BBC018EED91E00C94900051
:100F500083E291E00C949B07CF93DF930E949B0761
:100F6000EC010E94A8078C0F9D1FDF91CF9108957F
:100F7000FC0180819181009711F00C94DD0D0895A2
:100F80000F931F93CF93DF93EC0188819981009792
:100F900059F02A813B812617370730F081E0DF9135
:100FA000CF911F910F9108958B016F5F7F4F0E942A
:100FB000660E009759F0998388831B830A832C81DE
:100FC0003D81232B59F7FC011082E8CF80E0E7CF69
:100FD000EF92FF920F931F93CF93DF9361157105EB
:100FE00041F480E0DF91CF911F910F91FF90EF903E
:100FF000089541155105B1F07B01EC010C811D8173
:10100000040F151FB8010E94C007882351F32881DF
:1010100039818C819D81B701820F931F0E943D0F02
:101020001D830C8381E0DECFEF92FF920F931F931D
:10103000CF93DF93EC017B018A01BA010E94C007C4
:1010400028813981811114C02115310519F0C90198
:101050000E94DD0D198218821D821C821B821A8259
:10106000CE01DF91CF911F910F91FF90EF900895E6
:101070001D830C83B701C9010E943D0FF1CFAF92D0
:10108000BF92CF92DF92EF92FF920F931F93CF9375
:10109000DF93EC017B015A01CC24C394D12C452B66
:1010A00029F4D12CC12CAA24A394B12C1982188222
:1010B0001B821A821D821C8250E040E065E271E0D2
:1010C000CE010E941408D70114960D911C91C016F0
:1010D000D10628F5A016B10608F48501D701ED91D7
:1010E000FC911197E00FF11FB08010826D917C91FF
:1010F0006C0D7D1D61157105F1F0FB010190002063
:10110000E9F73197AF01461B570BCE010E94140837
:10111000F70180819181080F191FD801BC92CE017F
:10112000DF91CF911F910F91FF90EF90DF90CF90C3
:10113000BF90AF90089588819981009711F00E9427
:10114000DD0D198218821D821C821B821A82E0CF5B
:101150001F920F920FB60F9211242F933F934F932C
:101160005F936F937F938F939F93AF93BF93EF930F
:10117000FF938091D5019091D601A091D701B091B4
:10118000D801892B8A2B8B2BD1F19091D401E0913E
:10119000D201F091D3018081892780838091D5018C
:1011A0009091D601A091D701B091D80118161906D7
:1011B0001A061B069CF48091D5019091D601A0914E
:1011C000D701B091D8010197A109B1098093D50148
:1011D0009093D601A093D701B093D801FF91EF91DE
:1011E000BF91AF919F918F917F916F915F914F913F
:1011F0003F912F910F900FBE0F901F9018958091E7
:1012000000010E94F401EACF1F920F920FB60F92D5
:1012100011242F933F934F935F936F937F938F93FB
:101220009F93AF93BF93EF93FF938EED91E00E9456
:101230000E01FF91EF91BF91AF919F918F917F919F
:101240006F915F914F913F912F910F900FBE0F9033
:101250001F9018951F920F920FB60F9211242F9383
:101260008F939F93EF93FF93E091EE01F091EF0145
:101270008081E091F401F091F50182FD1BC0908125
:101280008091F7018F5F8F732091F801821741F0F1
:10129000E091F701F0E0E252FE4F958F8093F70165
:1012A000FF91EF919F918F912F910F900FBE0F9013
:1012B0001F9018958081F4CF1F920F920FB60F9256
:1012C00011242F933F938F939F93AF93BF9380915C
:1012D000DA019091DB01A091DC01B091DD01309148
:1012E000CD0123E0230F2D3758F50196A11DB11D27
:1012F0002093CD018093DA019093DB01A093DC0170
:10130000B093DD018091CE019091CF01A091D001E9
:10131000B091D1010196A11DB11D8093CE01909392
:10132000CF01A093D001B093D101BF91AF919F9114
:101330008F913F912F910F900FBE0F901F90189596
:1013400026E8230F0296A11DB11DD2CF1F920F9246
:101350000FB60F9211242F933F938F939F93EF9388
:10136000FF938091CC0187FF1FC0109285001092DF
:1013700084008091CC018F5F8093CC018091CC015F
:1013800087FF04C08091CC018C30ACF08091840048
:1013900090918500049680349C4990F1809184005E
:1013A0009091850004962EC08091CC0187FFE1CFFB
:1013B0008091CC01DECF2091840030918500E091B6
:1013C000CC018E2FEE0F990BFC01EE0FFF1FE80FE3
:1013D000F91FE855FE4F81819281820F931F9093F0
:1013E0008900809388008091CC01FF91EF919F91BB
:1013F0008F913F912F910F900FBE0F901F901895D6
:1014000080E49CE990938900809388008FEF80931B
:10141000CC01EBCFEEEDF1E01382128288EE93E087
:10142000A0E0B0E084839583A683B7838BE091E04E
:101430009183808385EC90E09587848784EC90E0AD
:101440009787868780EC90E0918B808B81EC90E091
:10145000938B828B82EC90E0958B848B86EC90E072
:10146000978B868B118E128E138E148EEBE7F2E023
:101470008DE191E0918380838AE0868789E0878788
:101480000895CF93DF93CDB7DEB7AD970FB6F8943D
:10149000DEBF0FBECDBF789484B5826084BD84B5B5
:1014A000816084BD85B5826085BD85B5816085BD5F
:1014B00080916E00816080936E0010928100809117
:1014C000810082608093810080918100816080939F
:1014D0008100809180008160809380008091B100C4
:1014E00084608093B1008091B00081608093B000EF
:1014F00080917A00846080937A0080917A00826083
:1015000080937A0080917A00816080937A00809144
:101510007A00806880937A001092C100E091EE0119
:10152000F091EF0182E08083E091EA01F091EB011C
:101530001082E091EC01F091ED018FEC808310922C
:10154000F601E091F201F091F30186E08083E091F1
:10155000F001F091F101808180618083E091F001E0
:10156000F091F101808188608083E091F001F09139
:10157000F101808180688083E091F001F091F101B8
:1015800080818F7D80831FB7F8948091D90181116C
:1015900027C0E1E9F0E08491E5EAF0E09491E82FDA
:1015A000F0E0EE0FFF1FED58FF4FA591B491EC91C5
:1015B000E92321F461E08AE00E94C60161E08AE04B
:1015C0000E9420028CB580618CBD8CB580648CBD7E
:1015D00061E08DE00E94200261E08BE00E94200229
:1015E0008091D9018F5F8093D9011FBF61E0809105
:1015F00089020E94200261E0809189020E94C60156
:1016000080918A028F3F09F43CC160E00E94200271
:1016100020918A0230E0F901E155FF4F8491F901F0
:10162000E556FF4F0491F901E957FF4F149111114D
:1016300019C161E080918A020E94200260E08091DD
:101640008A020E94C60183E090E00197F1F761E011
:1016500080918A020E94C60162E370E080E090E01F
:101660000E94760240E064E28BE792E00E940D0364
:1016700040E066E28BE792E00E940D0346E268E4F8
:101680008BE792E00E940D0340E864E58BE792E06F
:101690000E940D0349EA66E58BE792E00E940D0384
:1016A00043E068E58BE792E00E940D0348EE6AE5AF
:1016B0008BE792E00E940D0340E46AE28BE792E040
:1016C0000E940D034DE362E28BE792E00E940D035E
:1016D00068E28BE792E00E94EF02982F93709330BC
:1016E00039F0482F436068E28BE792E00E940D03D7
:1016F00061E085E00E94200261E084E00E94200217
:1017000089E291E00E94AC070E94A8078E010F5F5A
:101710001F4F20E0C22E20E0D22E8BE792E00E94E5
:10172000BE04882309F40FC18BE792E00E94A8024F
:10173000882309F408C188E491E00E949B0719A658
:1017400018A61BA61AA61DA61CA650E040E065E23E
:1017500071E0CE0188960E941408B12C80917D0220
:10176000B81608F0A7C08B2D90E09C0125583D4F7E
:101770007901F9018381803108F419C18BE591E089
:101780000E949B07F701438150E070E060E019A2DE
:10179000FE01B196DB01CA018F709927AA27BB27EA
:1017A00094E076956795579547959A95D1F78A3045
:1017B0000CF07EC0805D8293411551056105710575
:1017C00049F7309719F0CF010E949B07F7018381F9
:1017D00066E271E0803110F06BE571E01A821982E7
:1017E0001C821B821E821D82FB0101900020E9F7F2
:1017F0003197AF01461B570BC8010E9414084D8159
:101800005E8169817A81CE0188960E94E807C801CD
:101810000E94B807F70183811BA21AA21DA21CA275
:101820001FA21EA240E1B80190E00E94DA0CF8016C
:1018300001900020E9F73197AF01401B510BB8012F
:10184000CE0182960E9414084EA15FA16AA17BA1DD
:10185000CE0188960E94E807CE0182960E94B807C2
:10186000B3947CCF81110E949D01E12FF0E0EE0F37
:10187000FF1FE358FF4FA591B491EC910E2309F49B
:10188000D8CE4FE062E08BE792E00E940D0313E0B8
:1018900062E370E080E090E00E94760262E08BE715
:1018A00092E00E94EF0284FFDDCE115089F7DACE7C
:1018B000895C81CF0E94A80782E591E00E949B0786
:1018C000E8A4F9A4E114F10471F0F70181917F011A
:1018D000882349F0082E000C990B0E94230FF70172
:1018E00031978083F2CF0E94A7064CA55DA5BE016B
:1018F000685D7F4FC8010E943F088D819E81892BC2
:1019000051F06DE571E089819A810E94340FFF24C6
:10191000F394892B09F0F12CC8010E94B807FF202D
:10192000F1F00E94A70689E691E00E94AC070E94B0
:10193000A80768EE73E080E090E00E947602CE0196
:1019400088960E94B807C114D10409F4E6CE0E941B
:10195000FA00882309F4DDCE0E940000DACE4CA5FF
:101960005DA5BE01685D7F4FC8010E943F088D8163
:101970009E81892B59F065E771E089819A810E94E7
:10198000340FFF24F394892B09F0F12CC8010E9435
:10199000B807FF2019F081E891E0C7CF8FE891E008
:1019A0000E94AC070E94A7060E94A706C8CF86E245
:1019B00091E0E6CEBB27FB015527AA27880F991F88
:1019C000AA1FA41710F0A41B83955051B9F7A05D6E
:1019D000AA3308F0A95DA193009779F7B111B193EB
:1019E0001192CB010C94F40CDC01FC01672F719176
:1019F0007723E1F7329704C07C916D9370836291F5
:101A0000AE17BF07C8F308952F923F924F925F928F
:101A10006F927F928F929F92AF92BF92CF92DF92FE
:101A2000EF92FF920F931F93CF93DF93CDB7DEB763
:101A3000CA1BDB0B0FB6F894DEBF0FBECDBF0994F7
:101A40002A88398848885F846E847D848C849B844E
:101A5000AA84B984C884DF80EE80FD800C811B815C
:101A6000AA81B981CE0FD11D0FB6F894DEBF0FBE8B
:101A7000CDBFED010895EE0FFF1F0590F491E02D0D
:101A800009940F931F93CF93DF938230910510F445
:101A900082E090E0E0918D02F0918E0230E020E053
:101AA000B0E0A0E0309799F42115310509F44AC05F
:101AB000281B390B24303105D8F58A819B816115AB
:101AC000710589F1FB0193838283FE0111C040817E
:101AD00051810281138148175907E0F048175907CF
:101AE00099F4109761F012960C93129713961C9329
:101AF0003296CF01DF91CF911F910F9108950093FE
:101B00008D0210938E02F4CF2115310551F042174A
:101B1000530738F0A901DB019A01BD01DF01F8018B
:101B2000C1CFEF01F9CF90938E0280938D02CDCF7C
:101B3000FE01E20FF31F8193919322503109398303
:101B40002883D7CF20918B0230918C02232B41F434
:101B5000209103013091040130938C0220938B0279
:101B600020910101309102012115310541F42DB779
:101B70003EB74091050150910601241B350BE091C1
:101B80008B02F0918C02E217F307A0F42E1B3F0B9F
:101B90002817390778F0AC014E5F5F4F24173507DF
:101BA00048F04E0F5F1F50938C0240938B0281933D
:101BB00091939FCFF0E0E0E09CCFCF93DF9300972D
:101BC000E9F0FC01329713821282A0918D02B0914C
:101BD0008E02ED0130E020E01097A1F420813181E8
:101BE000820F931F20918B0230918C0228173907A6
:101BF00009F061C0F0938C02E0938B02DF91CF91EA
:101C00000895EA01CE17DF07E8F54A815B819E015E
:101C100041155105B1F7E901FB83EA8349915991D7
:101C2000C40FD51FEC17FD0761F4808191810296E6
:101C3000840F951FE90199838883828193819B8317
:101C40008A83F0E0E0E012968D919C9113970097C3
:101C5000B9F52D913C911197CD010296820F931FFA
:101C600020918B0230918C022817390739F6309772
:101C700051F510928E0210928D02B0938C02A093B7
:101C80008B02BCCFD383C28340815181840F951FC7
:101C9000C817D90761F44E5F5F4F88819981480F5B
:101CA000591F518340838A819B81938382832115AD
:101CB000310509F0B0CFF0938E02E0938D029ECFF4
:101CC000FD01DC01C0CF13821282D7CFB0E0A0E0CB
:101CD000ECE6FEE00C94060D8C01009751F4CB016C
:101CE0000E94410D8C01C801CDB7DEB7E0E10C9434
:101CF000220DFC01E60FF71F9C0122503109E2176B
:101D0000F30708F49DC0D901CD91DC911197C61756
:101D1000D70798F0C530D10530F3CE010497861768
:101D2000970708F3C61BD70B2297C193D1936D93E6
:101D30007C93CF010E94DD0DD6CF5B01AC1ABD0AAA
:101D40004C018C0E9D1EA0918D02B0918E02512CE3
:101D5000412CF12CE12C109731F580918B02909160
:101D60008C028815990509F05CC04616570608F0E4
:101D700058C08091010190910201009741F48DB704
:101D80009EB74091050150910601841B950BE81701
:101D9000F90708F055C0F0938C02E0938B02F9012B
:101DA00071836083A0CF8D919C91119712966C9056
:101DB000129713967C901397A815B90559F56C01E5
:101DC00042E0C40ED11CCA14DB0420F1AC014A1954
:101DD0005B09DA011296159780F062827382518353
:101DE0004083D9016D937C93E114F10471F0D70124
:101DF0001396FC93EE93129776CF22968C0F9D1F2D
:101E0000F90191838083F301EFCFF0938E02E09389
:101E10008D0269CF4816590608F42C017D01D301C3
:101E20009ACFCB010E94410D7C01009749F0AE0191
:101E3000B8010E942B0FC8010E94DD0D870153CF0E
:101E400010E000E050CF9111089581568A5108F4B6
:101E5000805285580895FB01DC0102C001900D926B
:101E600041505040D8F70895FB01DC018D9101905D
:101E700080190110D9F3990B0895FB01DC01019041
:0C1E80000D920020E1F70895F894FFCFC8
:101E8C00FF00008F0280000000000030019000BDB8
:101E9C00007D01EE00CC00E000000000002105BE3A
:101EAC0004A8020D0A0020300050757420796F755B
:101EBC0072206361726420746F207468652072658F
:101ECC00616465722E2E2E00554944207461672082
:101EDC003A004D657373616765203A2000423820E3
:101EEC0042312038432031320055736572206163D2
:101EFC006365737300373220303520393520353126
:101F0C00004D6173746572206163636573730020A7
:0E1F1C004163636573732064656E69656400DC
:00000001FF
