:100000000C9463000C948B000C948B000C948B006C
:100010000C948B000C948B000C948B000C94B50802
:100020000C948B000C948B000C948B000C94B309F3
:100030000C948B000C948B000C948B000C948B0014
:100040000C9469090C948B000C9437090C941109D9
:100050000C948B000C948B000C948B000C948B00F4
:100060000C948B000C948B000000000024002700EF
:100070002A000000000023002600290000000008DC
:10008000000201000003040700000000000000005F
:10009000010204081020408001020408102001021F
:1000A0000408102000000000250028002B00040494
:1000B0000404040404040202020202020303030310
:1000C00003030200170A11241FBECFEFD8E0DEBFE2
:1000D000CDBF11E0A0E0B1E0EEEBFEE102C0059083
:1000E0000D92AE39B107D9F722E0AEE9B1E001C017
:1000F0001D92AF38B207E1F710E0C3E6D0E004C0CC
:100100002197FE010E94540DC236D107C9F70E9403
:100110004E0A0C945D0F0C9400008CBD9DBD08959B
:10012000AF92BF92CF92DF92EF92FF920F931F9305
:10013000CF93DF936C017B018B01040F151FEB0143
:100140005E01AE18BF08C017D10759F06991D601FA
:10015000ED91FC910190F081E02DC6010995892B6C
:1001600079F7C501DF91CF911F910F91FF90EF902B
:10017000DF90CF90BF90AF900895FC01538D448DD8
:10018000252F30E0842F90E0821B930B541710F042
:10019000CF96089501970895FC01918D828D98174F
:1001A00061F0A28DAE0FBF2FB11D5D968C91928D27
:1001B0009F5F9F73928F90E008958FEF9FEF089558
:1001C000FC01918D828D981731F0828DE80FF11D21
:1001D000858D90E008958FEF9FEF0895FC01918D3C
:1001E000228D892F90E0805C9F4F821B91098F7335
:1001F000992708958EED91E00E94EE0021E0892B71
:1002000009F420E0822F089580E090E0892B29F006
:100210000E94FA0081110C9400000895FC01A48D45
:10022000A80FB92FB11DA35ABF4F2C91848D90E018
:1002300001968F739927848FA689B7892C93A089FB
:10024000B1898C91837080648C93938D848D981385
:1002500006C00288F389E02D80818F7D8083089518
:10026000EF92FF920F931F93CF93DF93EC0181E006
:10027000888F9B8D8C8D98131AC0E889F9898081AD
:1002800085FF15C09FB7F894EE89FF896083E889E0
:10029000F98980818370806480839FBF81E090E0D2
:1002A000DF91CF911F910F91FF90EF900895F62E5F
:1002B0000B8D10E00F5F1F4F0F731127E02E8C8DF9
:1002C0008E110CC00FB607FCFACFE889F98980813E
:1002D00085FFF5CFCE010E940E01F1CFEB8DEC0F23
:1002E000FD2FF11DE35AFF4FF0829FB7F8940B8F5B
:1002F000EA89FB8980818062CFCFCF93DF93EC01C5
:10030000888D8823B9F0AA89BB89E889F9898C91FD
:1003100085FD03C0808186FD0DC00FB607FCF7CFB9
:100320008C9185FFF2CF808185FFEDCFCE010E94B9
:100330000E01E9CFDF91CF910895833081F028F449
:10034000813099F08230A9F008958730A9F0883083
:10035000C9F08430B1F4809180008F7D03C080911A
:1003600080008F7780938000089584B58F7784BD57
:10037000089584B58F7DFBCF8091B0008F778093F7
:10038000B00008958091B0008F7DF9CF1F93CF9377
:10039000DF93282F30E0F901E458FF4F8491F901F1
:1003A000E057FF4FD491F901E255FF4FC491CC23A0
:1003B000A9F0162F81110E949D01EC2FF0E0EE0FA5
:1003C000FF1FEC55FF4FA591B4918FB7F894EC91B6
:1003D000111108C0D095DE23DC938FBFDF91CF9140
:1003E0001F910895DE2BF8CF9091000189130BC067
:1003F000E2ECF0E0E4919FEF90930001E13049F0EE
:1004000028F0E23061F060E00C94C60110926E00BA
:10041000FACF90916F009D7F90936F00F4CF9091F1
:1004200070009D7F9093700091E09093B000909148
:10043000B100987F94609093B1001092B300E3CF25
:10044000CF93DF9390E0FC01E057FF4F249182555A
:100450009F4FFC0184918823D1F090E0880F991F71
:10046000FC01E859FF4FA591B491FC01EC55FF4FF9
:10047000C591D49161110EC09FB7F8948C91E22F71
:10048000E0958E238C932881E223E8839FBFDF9140
:10049000CF9108958FB7F894EC91E22BEC938FBF36
:1004A000F6CFCF9390910001891721F09F3FC1F0C3
:1004B000CF910895E2ECF0E0C491C7FDF9CF61E07F
:1004C0000E942002CC2309F483C0C23009F097C0F7
:1004D0008091B100887F84608093B10089EFB5C0BE
:1004E00080930001E2ECF0E0C491CF3F09F3C1300A
:1004F00039F148F0C23009F445C0C7FDD9CF61E0F9
:100500000E942002E2CF14BC15BC94B5926094BD49
:1005100095B5916095BD282F30E0F901E255FF4F68
:10052000E491F0E0EE0FFF1FEC55FF4F4591549121
:10053000F901E057FF4FE491E093D101C0E0BFCF54
:1005400010928000109281009091810098609093A9
:10055000810090918100916090938100282F30E07C
:10056000F901E255FF4FE491F0E0EE0FFF1FEC556B
:10057000FF4F45915491F901E057FF4FE491E0930B
:10058000D0019DCF1092B0001092B1009091B000B8
:1005900092609093B0009091B10091609093B100FF
:1005A000282F30E0F901E255FF4FE491F0E0EE0F23
:1005B000FF1FEC55FF4F459154915093CF0140934D
:1005C000CE01F901E057FF4FE491E093CD0177CFE1
:1005D00085B5887F836085BD89EF87BD8FEF9FEFED
:1005E000DC018093DA019093DB01A093DC01B093EE
:1005F000DD0180916E00826080936E0059CFC13022
:10060000E9F480918100887F8160809381008FE789
:100610009EE390938900809388008FEF9FEFDC0129
:100620008093D6019093D701A093D801B093D901BC
:1006300080916F00826080936F003ACFC23021F0CA
:10064000C11136CF8FE7C9CF8FE78093B3008FEF0B
:100650009FEFDC018093D2019093D301A093D4014A
:10066000B093D5018091700082608093700020CF9C
:100670003FB7F8948091C4019091C501A091C60143
:10068000B091C70126B5A89B05C02F3F19F0019670
:10069000A11DB11D3FBFBA2FA92F982F8827BC01DC
:1006A000CD01620F711D811D911D42E0660F771F04
:1006B000881F991F4A95D1F708958F929F92AF9204
:1006C000BF92CF92DF92EF92FF924B015C010E94AA
:1006D00038036B017C010E9438036C197D098E0977
:1006E0009F09683E734081059105A8F321E0821AB5
:1006F0009108A108B10888EEC80E83E0D81EE11C5D
:10070000F11C81149104A104B10429F7FF90EF902A
:10071000DF90CF90BF90AF909F908F900895BC01D5
:100720006E5F7F4FDC01ED91FC910190F081E02D37
:1007300040E0099591E0811190E0892F0895089596
:100740008EBD00000DB407FEFDCF8EB50895DF927B
:10075000EF92FF920F931F93CF93DF937C01062FAD
:10076000D42E152F80E590E00E948D0060E0F70107
:1007700086850E94C60182E10E94A003CD2DD12F63
:100780000C0F1D2F111DC017D10721F089910E9458
:10079000A003F9CF61E0F7018685DF91CF911F912A
:1007A0000F91FF90EF90DF900C94C6011F93CF93B1
:1007B000DF93EC01162F80E590E00E948D0060E051
:1007C0008E850E94C601812F80680E94A00380E070
:1007D0000E94A003182F61E08E850E94C601812F20
:1007E000DF91CF911F9108950F931F93CF93DF93C4
:1007F000EC01062F142F80E590E00E948D0060E050
:100800008E850E94C601802F0E94A003812F0E9426
:10081000A00361E08E85DF91CF911F910F910C9421
:10082000C601CF92DF92EF92FF920F931F93CF9367
:10083000DF93EC016B01F42E890140E062E00E943D
:10084000F40344E06AE0CE010E94F40340E864E16E
:10085000CE010E94F403A6016F2DCE010E94A703D2
:1008600043E062E0CE010E94F4038FB7F894C09099
:10087000C901D090CA01E090CB01F090CC018FBFAC
:1008800089E5C80ED11CE11CF11C6AE0CE010E9472
:10089000D60382FF1BC040E062E0CE010E94F40359
:1008A00064E4CE010E94D603F801808362E4CE01A5
:1008B0000E94D603F801818380E0DF91CF911F91E0
:1008C0000F91FF90EF90DF90CF9008952FB7F8949D
:1008D0008091C9019091CA01A091CB01B091CC0146
:1008E0002FBF8C159D05AE05BF0578F283E0E5CFDF
:1008F0002F923F924F925F926F927F928F929F9230
:10090000AF92CF92DF92EF92FF920F931F93CF930C
:10091000DF9300D0CDB7DEB74C012B01D42E3901C7
:1009200080E0E114F10411F0F70180813C2C329455
:1009300090EF3922380E40E062E0C4010E94F403D7
:100940004FE768E0C4010E94F40340E864E1C40199
:100950000E94F403A2016D2DC4010E94A703432D40
:100960006AE1C4010E94F4034CE062E0C4010E9409
:10097000F4036AE1C4010E94D603482F40686AE18B
:10098000C4010E94F4038FB7F8942090C9013090FD
:10099000CA014090CB015090CC018FBFF4E22F0EE2
:1009A000311C411C511C68E0C4010E94D603982FE1
:1009B000907309F0C0C080FF15C083E00F900F90C6
:1009C000DF91CF911F910F91FF90EF90DF90CF902B
:1009D000AF909F908F907F906F905F904F903F90DF
:1009E0002F9008952FB7F8948091C9019091CA0172
:1009F000A091CB01B091CC012FBF82159305A40526
:100A0000B50588F2DACF6114710409F469C00115E3
:100A1000110509F465C064E1C4010E94D603382EB3
:100A2000F8018081831508F480C030823320E1F121
:100A300080E590E00E948D0060E0F40186850E94D0
:100A4000C6013A9482E90E94A003CC20B1F08FEF56
:100A500090E09C0102C0220F331FCA94E2F76901A3
:100A600082E90E94A0039C2D9095F301208192239E
:100A70008C21982B9083CC24C39423014C0C511CC3
:100A8000C31440F482E90E94A003F20181932F0174
:100A9000C394F6CF80E00E94A003F201808361E05E
:100AA000F40186850E94C60168E1C4010E94D60354
:100AB0008770E114F10411F0F701808323FC37C043
:100AC00061147104B1F10115110599F1AA2089F1A0
:100AD000F8014081413031F4843029F58FEF6ECF39
:100AE00080E0ECCF4230F8F081111DC042509E01F1
:100AF0002F5F3F4FB301C4010E94110481115ECFEB
:100B0000F8019081690E711CF3013297208199815F
:100B1000291309C0F1E06F1A7108F30120819A814D
:100B2000291709F44BCF87E049CF84E047CF82E013
:100B300045CF80E043CF6CE0C4010E94D603282E4D
:100B4000837109F460CF81E039CF8F929F92AF9289
:100B5000CF92EF92FF920F931F93CF93DF9300D02A
:100B600000D01F92CDB7DEB74C0182E08D8340E00C
:100B700064E2C4010E94F40340E066E2C4010E9402
:100B8000F40346E268E4C4010E94F40386E28B8326
:100B90008D818230D8F16CE1C4010E94D603482FC8
:100BA0004F776CE1C4010E94F40387E08C83A12C91
:100BB000C12CCE0104967C018E010B5F1F4F9E015C
:100BC0002F5F3F4F41E0BE016D5F7F4FC4010E9428
:100BD0007804982F811117C08D818230B9F48C81EF
:100BE000811114C081E00F900F900F900F900F9023
:100BF000DF91CF911F910F91FF90EF90CF90AF9029
:100C00009F908F90089581E0923069F380E0EBCF60
:100C10002F923F924F925F926F927F928F929F920C
:100C2000AF92BF92CF92DF92EF92FF920F931F93FA
:100C3000CF93DF93CDB7DEB72D970FB6F894DEBF15
:100C40000FBECDBF16E0413508F04AC1342E3B013E
:100C50004C016CE10E94D603482F4F776CE1C40130
:100C60000E94F40383E98983332029F081E0F301B2
:100C70009081953008F480E022242394B12C9B2DA0
:100C8000990F990F990FD32CD91AD7FCD12C32E098
:100C9000882319F098E89B8333E021E09D2D97701D
:100CA00009F420E09D2D959595959595290FC9F00E
:100CB00094E0811193E0291708F4922FEB2DF0E0D6
:100CC0003196E60DF71D232F4191A1E0B0E0AC0F66
:100CD000BD1FA20FB11D4C932F5F422F431B49171D
:100CE00098F3882311F0F8E0DF0E8FE18D150CF0FA
:100CF00082C090E79A838B819C8189279D81892777
:100D00009E8189278F839E01285F3F4F47E0BE0168
:100D10006F5F7F4FC4010E941104182F8111E0C042
:100D20001A86E3E0EB87DC86CE0107962C0199E07A
:100D30009D87CA844C2D4295407F4C0D6AE1C401C9
:100D40000E94F403A12CCE010A967C018E01055F5E
:100D50001F4F92014D85BE016F5F7F4FC4010E94FE
:100D60007804182F823009F065C06CE1C4010E943C
:100D7000D60385FDB5C08F7109F480E2282F30E0DD
:100D80004D2DDD0C550B421753070CF09DC0D82E8E
:100D9000E82FE595E595E595EF5F982F977081E051
:100DA00009F480E0E80F81E090E08C0F9D1F8E0F2A
:100DB000911DFC01215031092770332781E090E01B
:100DC00002C0880F991F2A95E2F79C018081822B2F
:100DD00080838BCF85E98983332031F081E0F30173
:100DE0009081983008F04BCF80E049CF87E9898324
:100DF00026E0B22EF9CF9D2D97709A878D2D85957F
:100E0000859585958E5F282F2295207F290F2A832F
:100E100021E0911101C020E0280F2D874424439444
:100E2000512C4C0E5D1E480E511CE9E0E81BEB876F
:100E3000DC867FCF811154C080E2D82E9C85903211
:100E40000CF457CF8B81883809F040C083E093E0E1
:100E5000EB2DF0E03196E60DF71D980FA1E0B0E024
:100E6000AC0FBD1FA80FB11D2C9121938F5F89136B
:100E7000F5CFBB84E3E0BE124DC08A8581114AC024
:100E80009E012D5F3F4F41E0B201C4010E94110459
:100E9000182F811125C09B81F201818198133CC0DC
:100EA0009C818281981338C0808182FF12C0239474
:100EB000F2E02F1609F48ECF83E0281609F496CFBE
:100EC00091E0291609F4CECE15E00AC082E094E044
:100ED000BFCFF3018387822D880F820D8F5F8083C0
:100EE000812F2D960FB6F894DEBF0FBECDBFDF91D8
:100EF000CF911F910F91FF90EF90DF90CF90BF9017
:100F0000AF909F908F907F906F905F904F903F90A9
:100F10002F90089511E0E4CF17E0E2CF61E085E083
:100F20000E94C60184E00E94510264E670E080E005
:100F300090E00E945D0360E085E00E94C60184E0CD
:100F40000E94F40164E670E080E090E00C945D03A0
:100F5000FC0101900020E9F73197AF01481B590BC4
:100F6000BC018EED91E00C94900083E291E00C9432
:100F7000A807CF93DF930E94A807EC010E94B50752
:100F80008C0F9D1FDF91CF910895FC01808191818D
:100F9000009711F00C94F60D08950F931F93CF93C3
:100FA000DF93EC0188819981009759F02A813B8178
:100FB0002617370730F081E0DF91CF911F910F9115
:100FC00008958B016F5F7F4F0E947F0E009759F04D
:100FD000998388831B830A832C813D81232B59F7B6
:100FE000FC011082E8CF80E0E7CFEF92FF920F93F1
:100FF0001F93CF93DF936115710541F480E0DF917A
:10100000CF911F910F91FF90EF90089541155105D9
:10101000B1F07B01EC010C811D81040F151FB8019B
:101020000E94CD07882351F3288139818C819D81CD
:10103000B701820F931F0E94560F1D830C8381E01E
:10104000DECFEF92FF920F931F93CF93DF93EC01CC
:101050007B018A01BA010E94CD0728813981811163
:1010600014C02115310519F0C9010E94F60D19822D
:1010700018821D821C821B821A82CE01DF91CF91C1
:101080001F910F91FF90EF9008951D830C83B7017E
:10109000C9010E94560FF1CFAF92BF92CF92DF925B
:1010A000EF92FF920F931F93CF93DF93EC017B019D
:1010B0005A01CC24C394D12C452B29F4D12CC12C1A
:1010C000AA24A394B12C198218821B821A821D8231
:1010D0001C8250E040E065E271E0CE010E942108F0
:1010E000D70114960D911C91C016D10628F5A016B3
:1010F000B10608F48501D701ED91FC911197E00F3D
:10110000F11FB08010826D917C916C0D7D1D611579
:101110007105F1F0FB0101900020E9F73197AF0173
:10112000461B570BCE010E942108F7018081918157
:10113000080F191FD801BC92CE01DF91CF911F91EA
:101140000F91FF90EF90DF90CF90BF90AF900895F8
:1011500088819981009711F00E94F60D19821882FA
:101160001D821C821B821A82E0CF1F920F920FB643
:101170000F9211242F933F934F935F936F937F931D
:101180008F939F93AF93BF93EF93FF938091D2017F
:101190009091D301A091D401B091D501892B8A2BD4
:1011A0008B2BD1F19091CD01E091CE01F091CF0147
:1011B0008081892780838091D2019091D301A09171
:1011C000D401B091D501181619061A061B069CF415
:1011D0008091D2019091D301A091D401B091D50119
:1011E0000197A109B1098093D2019093D301A093F3
:1011F000D401B093D501FF91EF91BF91AF919F9131
:101200008F917F916F915F914F913F912F910F90AF
:101210000FBE0F901F901895809100010E94F4015D
:10122000EACF1F920F920FB60F9211242F933F9384
:101230004F935F936F937F938F939F93AF93BF93DE
:10124000EF93FF938EED91E00E940E01FF91EF91DD
:10125000BF91AF919F918F917F916F915F914F91CE
:101260003F912F910F900FBE0F901F9018951F92D6
:101270000F920FB60F9211242F938F939F93EF939A
:10128000FF93E091EE01F091EF018081E091F40194
:10129000F091F50182FD1BC090818091F7018F5F75
:1012A0008F732091F801821741F0E091F701F0E08F
:1012B000E252FE4F958F8093F701FF91EF919F913E
:1012C0008F912F910F900FBE0F901F9018958081D6
:1012D000F4CF1F920F920FB60F9211242F933F93CA
:1012E0008F939F93AF93BF938091C9019091CA014F
:1012F000A091CB01B091CC013091C30123E0230F29
:101300002D3758F50196A11DB11D2093C30180937F
:10131000C9019093CA01A093CB01B093CC018091F5
:10132000C4019091C501A091C601B091C701019679
:10133000A11DB11D8093C4019093C501A093C60166
:10134000B093C701BF91AF919F918F913F912F9122
:101350000F900FBE0F901F90189526E8230F02964E
:10136000A11DB11DD2CF1F920F920FB60F92112463
:101370002F933F938F939F93EF93FF938091C2019D
:1013800087FF1FC010928500109284008091C201D7
:101390008F5F8093C2018091C20187FF04C080915A
:1013A000C2018C30ACF0809184009091850004964D
:1013B00080349C4990F1809184009091850004963E
:1013C0002EC08091C20187FFE1CF8091C201DECFA4
:1013D0002091840030918500E091C2018E2FEE0FA4
:1013E000990BFC01EE0FFF1FE80FF91FE256FE4FAD
:1013F00081819281820F931F90938900809388004E
:101400008091C201FF91EF919F918F913F912F9118
:101410000F900FBE0F901F90189580E49CE9909359
:101420008900809388008FEF8093C201EBCFEEEDAF
:10143000F1E01382128288EE93E0A0E0B0E08483B2
:101440009583A683B7838BE091E09183808385ECBD
:1014500090E09587848784EC90E09787868780EC7E
:1014600090E0918B808B81EC90E0938B828B82EC6F
:1014700090E0958B848B86EC90E0978B868B118E19
:10148000128E138E148EEBE7F2E08DE191E09183E2
:1014900080838AE0868789E087870895CF93DF93EA
:1014A000CDB7DEB7AD970FB6F894DEBF0FBECDBF98
:1014B000789484B5826084BD84B5816084BD85B52F
:1014C000826085BD85B5816085BD80916E0081603B
:1014D00080936E00109281008091810082608093E1
:1014E00081008091810081608093810080918000E3
:1014F0008160809380008091B10084608093B1000E
:101500008091B00081608093B00080917A00846007
:1015100080937A0080917A00826080937A00809133
:101520007A00816080937A0080917A00806880934D
:101530007A001092C100E091EE01F091EF0182E09B
:101540008083E091EA01F091EB011082E091EC01DF
:10155000F091ED018FEC80831092F601E091F201A1
:10156000F091F30186E08083E091F001F091F101C8
:10157000808180618083E091F001F091F1018081B0
:1015800088608083E091F001F091F10180818068B2
:101590008083E091F001F091F10180818F7D808363
:1015A0001FB7F8948091C801811127C0E8EBF0E0E3
:1015B0008491EAE9F0E09491E82FF0E0EE0FFF1F4C
:1015C000E859FF4FA591B491EC91E92321F461E032
:1015D0008AE00E94C60161E08AE00E9420028CB588
:1015E00080618CBD8CB580648CBD61E08DE00E9413
:1015F000200261E08BE00E9420028091C8018F5F91
:101600008093C8011FBF61E0809189020E9420027F
:1016100061E0809189020E94C60180918A028F3F19
:1016200009F448C160E00E94200220918A0230E063
:10163000F901E458FF4F8491F901E057FF4F0491FD
:10164000F901E255FF4F1491111125C161E080911C
:101650008A020E94200260E080918A020E94C601F4
:1016600083E090E00197F1F761E080918A020E94A7
:10167000C60162E370E080E090E00E945D0340E01C
:1016800064E28BE792E00E94F40340E066E28BE7BD
:1016900092E00E94F40346E268E48BE792E00E9445
:1016A000F40340E864E58BE792E00E94F40349EA22
:1016B00066E58BE792E00E94F40343E068E58BE780
:1016C00092E00E94F40348EE6AE58BE792E00E9404
:1016D000F40340E46AE28BE792E00E94F4034DE3F6
:1016E00062E28BE792E00E94F40368E28BE792E00B
:1016F0000E94D603982F9370933039F0482F43609F
:1017000068E28BE792E00E94F40361E085E00E94CA
:10171000200261E084E00E94200289E291E00E94C0
:10172000B9070E94B50784E00E94510260ED77E09E
:1017300080E090E00E945D0384E00E94F4018E014D
:101740000F5F1F4F20E0C22E20E0D22E8BE792E0E9
:101750000E94A505882309F40FC18BE792E00E943F
:101760008F03882309F408C188E491E00E94A80748
:1017700019A618A61BA61AA61DA61CA650E040E096
:1017800065E271E0CE0188960E942108B12C80911B
:101790007D02B81608F0A7C08B2D90E09C0125585B
:1017A0003D4F7901F9018381803108F419C18BE53E
:1017B00091E00E94A807F701438150E070E060E0EB
:1017C00019A2FE01B196DB01CA018F709927AA27E1
:1017D000BB2794E076956795579547959A95D1F7ED
:1017E0008A300CF07EC0805D829341155105610501
:1017F000710549F7309719F0CF010E94A807F7014A
:10180000838166E271E0803110F06BE571E01A824D
:1018100019821C821B821E821D82FB010190002006
:10182000E9F73197AF01461B570BC8010E94210809
:101830004D815E8169817A81CE0188960E94F5078B
:10184000C8010E94C507F70183811BA21AA21DA22D
:101850001CA21FA21EA240E1B80190E00E94F30C5E
:10186000F80101900020E9F73197AF01401B510BBF
:10187000B801CE0182960E9421084EA15FA16AA103
:101880007BA1CE0188960E94F507CE0182960E9428
:10189000C507B3947CCF81110E949D01E12FF0E038
:1018A000EE0FFF1FEE58FF4FA591B491EC910E2360
:1018B00009F4CCCE4FE062E08BE792E00E94F403A3
:1018C00013E062E370E080E090E00E945D0362E07C
:1018D0008BE792E00E94D60384FFD1CE115089F7A6
:1018E000CECE895C81CF0E94B50782E591E00E944F
:1018F000A807E8A4F9A4E114F10471F0F7018191BB
:101900007F01882349F0082E000C990B0E943C0FA0
:10191000F70131978083F2CF0E948E074CA55DA519
:10192000BE01685D7F4FC8010E944C088D819E8179
:10193000892B51F06DE571E089819A810E944D0FEC
:10194000FF24F394892B09F0F12CC8010E94C507EC
:10195000FF20F1F00E948E0789E691E00E94B9070E
:101960000E94B50768EE73E080E090E00E945D039E
:10197000CE0188960E94C507C114D10409F4E6CEB1
:101980000E94FA00882309F4DDCE0E940000DACE1E
:101990004CA55DA5BE01685D7F4FC8010E944C0843
:1019A0008D819E81892B59F065E771E089819A814B
:1019B0000E944D0FFF24F394892B09F0F12CC801EC
:1019C0000E94C507FF2019F081E891E0C7CF8FE89A
:1019D00091E00E94B9070E948E070E948E07C8CF2F
:1019E00086E291E0E6CEBB27FB015527AA27880FA8
:1019F000991FAA1FA41710F0A41B83955051B9F783
:101A0000A05DAA3308F0A95DA193009779F7B11101
:101A1000B1931192CB010C940D0DDC01FC01672FE9
:101A200071917723E1F7329704C07C916D937083B5
:101A30006291AE17BF07C8F308952F923F924F925D
:101A40005F926F927F928F929F92AF92BF92CF924E
:101A5000DF92EF92FF920F931F93CF93DF93CDB757
:101A6000DEB7CA1BDB0B0FB6F894DEBF0FBECDBFCF
:101A700009942A88398848885F846E847D848C84A0
:101A80009B84AA84B984C884DF80EE80FD800C81A9
:101A90001B81AA81B981CE0FD11D0FB6F894DEBF8C
:101AA0000FBECDBFED010895EE0FFF1F0590F4911D
:101AB000E02D09940F931F93CF93DF93823091050C
:101AC00010F482E090E0E0918D02F0918E0230E01F
:101AD00020E0B0E0A0E0309799F42115310509F439
:101AE0004AC0281B390B24303105D8F58A819B81E7
:101AF0006115710589F1FB0193838283FE0111C099
:101B0000408151810281138148175907E0F048173D
:101B1000590799F4109761F012960C931297139647
:101B20001C933296CF01DF91CF911F910F910895B1
:101B300000938D0210938E02F4CF2115310551F0E0
:101B40004217530738F0A901DB019A01BD01DF01FB
:101B5000F801C1CFEF01F9CF90938E0280938D02EF
:101B6000CDCFFE01E20FF31F8193919322503109F3
:101B700039832883D7CF20918B0230918C02232B7D
:101B800041F4209103013091040130938C022093A1
:101B90008B0220910101309102012115310541F4A0
:101BA0002DB73EB74091050150910601241B350B1E
:101BB000E0918B02F0918C02E217F307A0F42E1B48
:101BC0003F0B2817390778F0AC014E5F5F4F2417A1
:101BD000350748F04E0F5F1F50938C0240938B02E5
:101BE000819391939FCFF0E0E0E09CCFCF93DF9380
:101BF0000097E9F0FC01329713821282A0918D02C6
:101C0000B0918E02ED0130E020E01097A1F4208128
:101C10003181820F931F20918B0230918C02281703
:101C2000390709F061C0F0938C02E0938B02DF91D9
:101C3000CF910895EA01CE17DF07E8F54A815B816D
:101C40009E0141155105B1F7E901FB83EA834991F2
:101C50005991C40FD51FEC17FD0761F48081918164
:101C60000296840F951FE90199838883828193816D
:101C70009B838A83F0E0E0E012968D919C9113970C
:101C80000097B9F52D913C911197CD010296820FE5
:101C9000931F20918B0230918C022817390739F657
:101CA000309751F510928E0210928D02B0938C02F3
:101CB000A0938B02BCCFD383C28340815181840F18
:101CC000951FC817D90761F44E5F5F4F88819981CE
:101CD000480F591F518340838A819B81938382835C
:101CE0002115310509F0B0CFF0938E02E0938D02FB
:101CF0009ECFFD01DC01C0CF13821282D7CFB0E0AE
:101D0000A0E0E5E8FEE00C941F0D8C01009751F473
:101D1000CB010E945A0D8C01C801CDB7DEB7E0E1BE
:101D20000C943B0DFC01E60FF71F9C01225031097A
:101D3000E217F30708F49DC0D901CD91DC9111970A
:101D4000C617D70798F0C530D10530F3CE010497F8
:101D50008617970708F3C61BD70B2297C193D19319
:101D60006D937C93CF010E94F60DD6CF5B01AC1A28
:101D7000BD0A4C018C0E9D1EA0918D02B0918E0269
:101D8000512C412CF12CE12C109731F580918B02D4
:101D900090918C028815990509F05CC0461657068B
:101DA00008F058C08091010190910201009741F420
:101DB0008DB79EB74091050150910601841B950B8C
:101DC000E817F90708F055C0F0938C02E0938B02F6
:101DD000F90171836083A0CF8D919C911197129628
:101DE0006C90129713967C901397A815B90559F526
:101DF0006C0142E0C40ED11CCA14DB0420F1AC011A
:101E00004A195B09DA011296159780F06282738293
:101E100051834083D9016D937C93E114F10471F0F7
:101E2000D7011396FC93EE93129776CF22968C0FE0
:101E30009D1FF90191838083F301EFCFF0938E0210
:101E4000E0938D0269CF4816590608F42C017D01F4
:101E5000D3019ACFCB010E945A0D7C01009749F023
:101E6000AE01B8010E94440FC8010E94F60D87011F
:101E700053CF10E000E050CF9111089581568A5160
:101E800008F4805285580895FB01DC0102C00190DE
:101E90000D9241505040D8F70895FB01DC018D911F
:101EA000019080190110D9F3990B0895FB01DC0111
:0E1EB00001900D920020E1F70895F894FFCF05
:101EBE00FF00008F0280000000000030019000BD86
:101ECE00007D01EE00CC00E000000000000806A539
:101EDE00058F030D0A0020300050757420796F7540
:101EEE0072206361726420746F207468652072655D
:101EFE00616465722E2E2E00554944207461672050
:101F0E003A004D657373616765203A2000423820B0
:101F1E00423120384320313200557365722061639F
:101F2E0063657373003732203035203935203531F3
:101F3E00004D617374657220616363657373002075
:0E1F4E004163636573732064656E69656400AA
:00000001FF
