:100000000C945E000C9486000C9486000C94860080
:100010000C9486000C9486000C9486000C94590471
:100020000C9486000C9486000C9486000C94570562
:100030000C9486000C9486000C9486000C94860028
:100040000C940D050C9486000C94DB040C94B50400
:100050000C9486000C9486000C9486000C94860008
:100060000C9486000C948600000000080002010039
:100070000003040700000000000000000200000070
:1000800000250028002B0000000000240027002A83
:100090000004040404040404040202020202020331
:1000A000030303030301020408102040800102043B
:1000B00008102001020408102000130611241FBE9E
:1000C000CFEFD8E0DEBFCDBF11E0A0E0B1E0E8E0C7
:1000D000F0E102C005900D92A431B107D9F721E0FB
:1000E000A4E1B1E001C01D92A43FB207E1F710E026
:1000F000CEE5D0E004C02197FE010E94FC07CD357B
:10010000D107C9F70E9470060C9402080C940000F5
:1001100090E0FC01EB55FF4F24918F569F4FFC015F
:100120008491882399F090E0880F991FFC01E9578A
:10013000FF4FA591B491FC01E358FF4F8591949135
:100140008FB7F894EC91E22BEC938FBF08958F92C8
:100150009F92AF92BF92FF920F931F93CF93DF9323
:10016000F090F1012BE02F1508F44CC02091F30121
:1001700008E512E0021B110927FD1395000F111F5E
:10018000000F111F2091F201C8E8D0E0C21BD10975
:1001900027FDD395CC0FDD1FCC0FDD1F4E010D2E9B
:1001A000000CAA08BB089801012E000C440B550B4B
:1001B000281939094A095B09DC010E94B70724EBB9
:1001C00030E040E050E00E948D07820E931EA41E96
:1001D000B51E8C169D062CF0E801801691060CF4D5
:1001E000E4012297CC0FDD1F2FB7F8948F2D90E0FC
:1001F000FC01EE0FFF1FE80FF91FE453FE4FD283FF
:10020000C1832FBFDF91CF911F910F91FF90BF90BE
:10021000AF909F908F900895AF92BF92CF92DF9250
:10022000EF92FF920F931F93CF93DF936C017B01AB
:100230008B01040F151FEB015E01AE18BF08C0173C
:10024000D10759F06991D601ED91FC910190F081AF
:10025000E02DC6010995892B79F7C501DF91CF9172
:100260001F910F91FF90EF90DF90CF90BF90AF90D4
:100270000895FC01538D448D252F30E0842F90E0AC
:10028000821B930B541710F0CF9608950197089591
:10029000FC01918D828D981761F0A28DAE0FBF2F5A
:1002A000B11D5D968C91928D9F5F9F73928F90E0B0
:1002B00008958FEF9FEF0895FC01918D828D98171F
:1002C00031F0828DE80FF11D858D90E008958FEF5C
:1002D0009FEF0895FC01918D228D892F90E0805C25
:1002E0009F4F821B91098F73992708958FE291E0A8
:1002F0000E946A0121E0892B09F420E0822F0895F1
:1003000080E090E0892B29F00E94760181110C9405
:1003100000000895FC01A48DA80FB92FB11DA35AA8
:10032000BF4F2C91848D90E001968F739927848F15
:10033000A689B7892C93A089B1898C918370806438
:100340008C93938D848D981306C00288F389E02DD9
:1003500080818F7D80830895EF92FF920F931F938A
:10036000CF93DF93EC0181E0888F9B8D8C8D981368
:100370001AC0E889F989808185FF15C09FB7F89474
:10038000EE89FF896083E889F989808183708064C0
:1003900080839FBF81E090E0DF91CF911F910F910B
:1003A000FF90EF900895F62E0B8D10E00F5F1F4F1A
:1003B0000F731127E02E8C8D8E110CC00FB607FC29
:1003C000FACFE889F989808185FFF5CFCE010E94B7
:1003D0008A01F1CFEB8DEC0FFD2FF11DE35AFF4F9A
:1003E000F0829FB7F8940B8FEA89FB898081806245
:1003F000CFCFCF93DF93EC01888D8823B9F0AA8902
:10040000BB89E889F9898C9185FD03C0808186FDCF
:100410000DC00FB607FCF7CF8C9185FFF2CF80811E
:1004200085FFEDCFCE010E948A01E9CFDF91CF9108
:10043000089590E0FC01E859FF4F2491FC01EB5531
:10044000FF4F3491FC01EF56FF4FE491EE23C9F0CA
:10045000222339F0233001F1A8F4213019F12230A0
:1004600029F1F0E0EE0FFF1FE358FF4FA591B49183
:100470008FB7F894EC91611126C030953E233C93E0
:100480008FBF08952730A9F02830C9F0243049F7EC
:10049000809180008F7D03C0809180008F77809352
:1004A0008000DFCF84B58F7784BDDBCF84B58F7DAF
:1004B000FBCF8091B0008F778093B000D2CF809136
:1004C000B0008F7DF9CF3E2BDACF909100018913D8
:1004D0000BC0ECE7F0E0E4919FEF90930001E13076
:1004E00049F028F0E23061F060E00C9419021092BB
:1004F0006E00FACF90916F009D7F90936F00F4CFC4
:10050000909170009D7F9093700091E09093B00067
:100510009091B100987F94609093B1001092B300D5
:10052000E3CF3FB7F8948091240190912501A091E9
:100530002601B091270126B5A89B05C02F3F19F0D1
:100540000196A11DB11D3FBFBA2FA92F982F882753
:10055000BC01CD01620F711D811D911D42E0660F2E
:10056000771F881F991F4A95D1F708958F929F9200
:10057000AF92BF92CF92DF92EF92FF924B015C015C
:100580000E9491026B017C010E9491026C197D090D
:100590008E099F09683E734081059105A8F321E00B
:1005A000821A9108A108B10888EEC80E83E0D81E0F
:1005B000E11CF11C81149104A104B10429F7FF90FE
:1005C000EF90DF90CF90BF90AF909F908F90089565
:1005D0002F923F924F925F926F927F928F929F9253
:1005E000AF92BF92CF92DF92EF92FF920F931F9341
:1005F000CF93DF9300D01F92CDB7DEB733E0232E29
:10060000312C88248A94982C54016C01990FEE089F
:10061000FF0850E9452E50ED552E53E0652E712C04
:1006200061E085E00E94190280910001843049F563
:10063000ECE7F0E0F491FA83F7FD77C084E00E94E4
:100640008800FA81F11138C0C9820D2D1E2DFB8260
:1006500068E478EE81E090E02981302F412F5B81C2
:100660000E948D07BA01A901415051096109710920
:10067000EA8194E0E1113CC085B5887F836085BD47
:1006800046C08F3F09F051C084E080930001ECE741
:10069000F0E0F491FA83FF3F09F447C0F13009F428
:1006A0008CC008F470C0F23009F4A6C0FA81F7FDDE
:1006B0003CC084E00E9488008A81823009F0BFC07B
:1006C000C9820D2D1E2DFB82C301B201A701960127
:1006D0000E948D07BA01A9014150510961097109B0
:1006E00093E04F3F51056105710511F00CF0B0CF5B
:1006F0008091B100887F892B8093B1008A818130FD
:1007000009F4B5C0823009F4C4C081110EC047BDE0
:1007100080921A0190921B01A0921C01B0921D01BF
:1007200080916E00826080936E0064E670E080E0ED
:1007300090E00E94B60260E085E00E94190284E029
:100740000E94650264E670E080E090E00E94B602DC
:10075000E1E02E1A310809F063CF0F900F900F904F
:10076000DF91CF911F910F91FF90EF90DF90CF908D
:10077000BF90AF909F908F907F906F905F904F90C1
:100780003F902F90089514BC15BC84B5826084BD41
:1007900085B5816085BDE5E9F0E08491E82FF0E062
:1007A000EE0FFF1FE358FF4F85919491E9EAF0E0C7
:1007B0008491809315011A8241CF1092800010928B
:1007C0008100809181008860809381008091810008
:1007D000816080938100E5E9F0E08491E82FF0E00A
:1007E000EE0FFF1FE358FF4F85919491E9EAF0E087
:1007F00084918093140122CF1092B0001092B10026
:100800008091B00082608093B0008091B1008160DF
:100810008093B100E5E9F0E08491E82FF0E0EE0F7D
:10082000FF1FE358FF4F8591949190932901809386
:100830002801E9EAF0E0849180932A01FFCE60E08C
:1008400072E18AE790E0A70196010E948D07BA0144
:10085000A9014150510961097109FA81F13009F08A
:100860004DCF80918100887F81608093810050937B
:100870008900409388008092160190921701A092FF
:100880001801B092190180916F00826080936F000F
:100890004CCF4093B30080922B0190922C01A092F8
:1008A0002D01B0922E0180917000826080937000C3
:1008B0003CCF1F920F920FB60F9211242F933F93AC
:1008C0004F935F936F937F938F939F93AF93BF9358
:1008D000EF93FF9380912B0190912C01A0912D011A
:1008E000B0912E01892B8A2B8B2BD1F190912A016B
:1008F000E0912801F09129018081892780838091EE
:100900002B0190912C01A0912D01B0912E01181670
:1009100019061A061B069CF480912B0190912C015C
:10092000A0912D01B0912E010197A109B1098093E9
:100930002B0190932C01A0932D01B0932E01FF91D8
:10094000EF91BF91AF919F918F917F916F915F9147
:100950004F913F912F910F900FBE0F901F901895C0
:10096000809100010E946502EACF1F920F920FB69C
:100970000F9211242F933F934F935F936F937F9325
:100980008F939F93AF93BF93EF93FF938FE291E089
:100990000E948A01FF91EF91BF91AF919F918F913A
:1009A0007F916F915F914F913F912F910F900FBE6B
:1009B0000F901F9018951F920F920FB60F9211244F
:1009C0002F938F939F93EF93FF93E0913F01F091CB
:1009D00040018081E0914501F091460182FD1BC0FC
:1009E0009081809148018F5F8F7320914901821718
:1009F00041F0E0914801F0E0E15DFE4F958F80937A
:100A00004801FF91EF919F918F912F910F900FBE11
:100A10000F901F9018958081F4CF1F920F920FB600
:100A20000F9211242F933F938F939F93AF93BF9374
:100A30008091200190912101A0912201B091230188
:100A400030911F0123E0230F2D3758F50196A11D8A
:100A5000B11D20931F018093200190932101A09349
:100A60002201B09323018091240190912501A0914E
:100A70002601B09127010196A11DB11D809324018B
:100A800090932501A0932601B0932701BF91AF91C8
:100A90009F918F913F912F910F900FBE0F901F90BC
:100AA000189526E8230F0296A11DB11DD2CF1F92E3
:100AB0000F920FB60F9211242F933F934F935F9392
:100AC0006F937F938F939F93AF93BF93CF93DF9356
:100AD000EF93FF9380911E01C091F001D0E087FF5A
:100AE00024C0109285001092840080911E018F5FB7
:100AF00080931E0180911E01082E000C990B8C170B
:100B00009D0724F480911E018C30C4F180918400F3
:100B100090918500049680349C4908F47AC08091B5
:100B2000840090918500049676C080911E01082E65
:100B3000000C990B8C179D07C4F6E0911E018E2FB7
:100B4000EE0F990BFC01EE0FFF1FE80FF91FE453A6
:100B5000FE4F808186FFC9CFE0911E018E2FEE0FE0
:100B6000990BFC01EE0FFF1FE80FF91FE453FE4F36
:100B7000808160E08F730E941902B7CF20918400BA
:100B800030918500E0911E018E2FEE0F990BFC0134
:100B9000EE0FFF1FE80FF91FE453FE4F8181928192
:100BA000820F931F9093890080938800E0911E012B
:100BB0008E2FEE0F990BFC01EE0FFF1FE80FF91FB0
:100BC000E453FE4F808186FF11C0E0911E018E2FFD
:100BD000EE0F990BFC01EE0FFF1FE80FF91FE45316
:100BE000FE4F808161E08F730E941902FF91EF91A7
:100BF000DF91CF91BF91AF919F918F917F916F9135
:100C00005F914F913F912F910F900FBE0F901F90CA
:100C1000189580E49CE990938900809388008FEF79
:100C200080931E01E3CF109232011092310188EEC1
:100C300093E0A0E0B0E08093330190933401A0935F
:100C40003501B093360185E091E0909330018093B7
:100C50002F0185EC90E090933C0180933B0184EC64
:100C600090E090933E0180933D0180EC90E0909362
:100C7000400180933F0181EC90E09093420180938A
:100C8000410182EC90E0909344018093430186EC13
:100C900090E0909346018093450110924801109294
:100CA000490110924A0110924B018091F0018C3061
:100CB00098F491E0980F9093F0018093F10190E007
:100CC000FC01EE0FFF1FE80FF91FE453FE4F88EB06
:100CD0009BE09283818308958FEF8093F1010895C3
:100CE000789484B5826084BD84B5816084BD85B507
:100CF000826085BD85B5816085BD80916E00816013
:100D000080936E00109281008091810082608093B8
:100D100081008091810081608093810080918000BA
:100D20008160809380008091B10084608093B100E5
:100D30008091B00081608093B00080917A008460DF
:100D400080937A0080917A00826080937A0080910B
:100D50007A00816080937A0080917A008068809325
:100D60007A001092C100E0913F01F091400182E0D1
:100D70008083E0913B01F0913C011082E0913D01C4
:100D8000F0913E018FEC808310924701E091430186
:100D9000F091440186E08083E0914101F0914201AD
:100DA000808180618083E0914101F09142018081E6
:100DB00088608083E0914101F091420180818068E8
:100DC0008083E0914101F091420180818F7D808399
:100DD0008091F1018C3008F050C086E00E948800BC
:100DE0008091F101282F30E0F901EE0FFF1FE20F93
:100DF000F31FE453FE4F9081907C96609083109295
:100E0000F2011092F3012CE0622F0E94F007829F02
:100E1000B001112430E020E0AB01420F531FFA0172
:100E2000EE0FFF1FE40FF51FE453FE4F908196FD78
:100E300016C02F5F3F4F2C30310571F781110FC065
:100E40001092800082E080938100109285001092C1
:100E50008400B19A80916F00826080936F00E0916E
:100E6000F1018E2F90E0FC01EE0FFF1FE80FF91F3C
:100E7000E453FE4F80818064808390E080E00E9494
:100E8000A70084E00E94880085E00E948800C0E0FE
:100E9000D0E084E690E00E94A70060E177E280E085
:100EA00090E00E94B60284EF91E00E94E80260E1C7
:100EB00077E280E090E00E94B60284EF91E00E9429
:100EC000E80268E873E180E090E00E94B6028EEEEE
:100ED00092E00E94E8028EEE92E00E94E80268E84A
:100EE00073E180E090E00E94B60288EE93E00E94F9
:100EF000E80290E080E00E94A70060E375E780E0F0
:100F000090E00E94B602209721F20E947601882389
:100F100009F4BFCF0E940000BCCF052E97FB1EF442
:100F200000940E94A40757FD07D00E94BF0707FC4A
:100F300003D04EF40C94A40750954095309521951C
:100F40003F4F4F4F5F4F08959095809570956195F5
:100F50007F4F8F4F9F4F08950E94E107A59F900DEF
:100F6000B49F900DA49F800D911D11240895B7FF8B
:100F70000C94AC070E94AC07821B930B0895A1E26E
:100F80001A2EAA1BBB1BFD010DC0AA1FBB1FEE1F03
:100F9000FF1FA217B307E407F50720F0A21BB30B4E
:100FA000E40BF50B661F771F881F991F1A9469F7CA
:100FB00060957095809590959B01AC01BD01CF0126
:100FC0000895A29FB001B39FC001A39F700D811D22
:100FD0001124911DB29F700D811D1124911D089542
:100FE000991B79E004C0991F961708F0961B881F7B
:100FF0007A95C9F780950895EE0FFF1F0590F4913B
:08100000E02D0994F894FFCFE4
:10100800FF00000000AC010C013901F9016A014838
:04101800015C010076
:00000001FF
