:100000000C945D000C9485000C9485000C94850084
:100010000C9485000C9485000C9485000C9485004C
:100020000C9485000C9485000C9485000C9442037C
:100030000C9485000C9485000C9485000C9485002C
:100040000C94F8020C9485000C94C6020C94A00247
:100050000C9485000C9485000C9485000C9485000C
:100060000C9485000C94850000000008000201003B
:100070000003040700000000000000000000000072
:10008000250028002B0000000000240027002A0083
:10009000040404040404040402020202020203032E
:1000A0000303030301020408102040800102040836
:1000B0001020010204081020FE0311241FBECFEF00
:1000C000D8E0DEBFCDBF11E0A0E0B1E0E4EAFBE0A4
:1000D00002C005900D92A231B107D9F721E0A2E14B
:1000E000B1E001C01D92A13EB207E1F710E0CDE5FD
:1000F000D0E004C02197FE010E94CA05CC35D1078B
:10010000C9F70E945B040C94D0050C9400008F92F8
:100110009F92AF92BF92FF920F931F93CF93DF9363
:10012000F090DE012BE02F1508F44CC02091E00187
:1001300008E512E0021B110927FD1395000F111F9E
:10014000000F111F2091DF01C8E8D0E0C21BD109C8
:1001500027FDD395CC0FDD1FCC0FDD1F4E010D2EDB
:10016000000CAA08BB089801012E000C440B550B8B
:10017000281939094A095B09DC010E94850524EB2D
:1001800030E040E050E00E945B05820E931EA41E0A
:10019000B51E8C169D062CF0E801801691060CF415
:1001A000E4012297CC0FDD1F2FB7F8948F2D90E03C
:1001B000FC01EE0FFF1FE80FF91FE754FE4FD2833B
:1001C000C1832FBFDF91CF911F910F91FF90BF90FF
:1001D000AF909F908F900895AF92BF92CF92DF9291
:1001E000EF92FF920F931F93CF93DF936C017B01EC
:1001F0008B01040F151FEB015E01AE18BF08C0177D
:10020000D10759F06991D601ED91FC910190F081EF
:10021000E02DC6010995892B79F7C501DF91CF91B2
:100220001F910F91FF90EF90DF90CF90BF90AF9014
:100230000895FC01538D448D252F30E0842F90E0EC
:10024000821B930B541710F0CF96089501970895D1
:10025000FC01918D828D981761F0A28DAE0FBF2F9A
:10026000B11D5D968C91928D9F5F9F73928F90E0F0
:1002700008958FEF9FEF0895FC01918D828D98175F
:1002800031F0828DE80FF11D858D90E008958FEF9C
:100290009FEF0895FC01918D228D892F90E0805C65
:1002A0009F4F821B91098F73992708958CE191E0EC
:1002B0000E944A0121E0892B09F420E0822F089551
:1002C00080E090E0892B29F00E94560181110C9466
:1002D00000000895FC01A48DA80FB92FB11DA35AE9
:1002E000BF4F2C91848D90E001968F739927848F56
:1002F000A689B7892C93A089B1898C918370806479
:100300008C93938D848D981306C00288F389E02D19
:1003100080818F7D80830895EF92FF920F931F93CA
:10032000CF93DF93EC0181E0888F9B8D8C8D9813A8
:100330001AC0E889F989808185FF15C09FB7F894B4
:10034000EE89FF896083E889F98980818370806400
:1003500080839FBF81E090E0DF91CF911F910F914B
:10036000FF90EF900895F62E0B8D10E00F5F1F4F5A
:100370000F731127E02E8C8D8E110CC00FB607FC69
:10038000FACFE889F989808185FFF5CFCE010E94F7
:100390006A01F1CFEB8DEC0FFD2FF11DE35AFF4FFA
:1003A000F0829FB7F8940B8FEA89FB898081806285
:1003B000CFCFCF93DF93EC01888D8823B9F0AA8942
:1003C000BB89E889F9898C9185FD03C0808186FD10
:1003D0000DC00FB607FCF7CF8C9185FFF2CF80815F
:1003E00085FFEDCFCE010E946A01E9CFDF91CF9169
:1003F000089590E0FC01E859FF4F2491FC01EC5571
:10040000FF4F3491FC01E057FF4FE491EE23C9F018
:10041000222339F0233001F1A8F4213019F12230E0
:1004200029F1F0E0EE0FFF1FE458FF4FA591B491C2
:100430008FB7F894EC91611126C030953E233C9320
:100440008FBF08952730A9F02830C9F0243049F72C
:10045000809180008F7D03C0809180008F77809392
:100460008000DFCF84B58F7784BDDBCF84B58F7DEF
:10047000FBCF8091B0008F778093B000D2CF809176
:10048000B0008F7DF9CF3E2BDACF3FB7F894809143
:10049000180190911901A0911A01B0911B0126B584
:1004A000A89B05C02F3F19F00196A11DB11D3FBFAC
:1004B000BA2FA92F982F8827BC01CD01620F711D7B
:1004C000811D911D42E0660F771F881F991F4A9575
:1004D000D1F708958F929F92AF92BF92CF92DF9201
:1004E000EF92FF920E9445024B015C0180E3C82E0F
:1004F00085E7D82EE12CF12C0E9445026819790974
:100500008A099B09683E734081059105A8F321E0A3
:10051000C21AD108E108F10888EE880E83E0981E1F
:10052000A11CB11CC114D104E104F10429F7FF900E
:10053000EF90DF90CF90BF90AF909F908F900895F5
:100540001F920F920FB60F9211242F933F934F9348
:100550005F936F937F938F939F93AF93BF93EF932B
:10056000FF938CE191E00E946A01FF91EF91BF91AE
:10057000AF919F918F917F916F915F914F913F913B
:100580002F910F900FBE0F901F9018951F920F92F2
:100590000FB60F9211242F938F939F93EF93FF9396
:1005A000E0912C01F0912D018081E0913201F091D8
:1005B000330182FD1BC09081809135018F5F8F7365
:1005C00020913601821741F0E0913501F0E0E45EC0
:1005D000FE4F958F80933501FF91EF919F918F9101
:1005E0002F910F900FBE0F901F9018958081F4CF20
:1005F0001F920F920FB60F9211242F933F938F9358
:100600009F93AF93BF938091140190911501A09196
:100610001601B09117013091130123E0230F2D37FC
:1006200058F50196A11DB11D20931301809314016B
:1006300090931501A0931601B093170180911801B2
:1006400090911901A0911A01B0911B010196A11D71
:10065000B11D8093180190931901A0931A01B093D2
:100660001B01BF91AF919F918F913F912F910F905F
:100670000FBE0F901F90189526E8230F0296A11D1C
:10068000B11DD2CF1F920F920FB60F9211242F934C
:100690003F934F935F936F937F938F939F93AF930A
:1006A000BF93CF93DF93EF93FF9380911201C0919B
:1006B000DD01D0E087FF24C01092850010928400F5
:1006C000809112018F5F8093120180911201082E98
:1006D000000C990B8C179D0724F4809112018C302B
:1006E000C4F18091840090918500049680349C49E7
:1006F00008F47AC08091840090918500049676C0B9
:1007000080911201082E000C990B8C179D07C4F6DE
:10071000E09112018E2FEE0F990BFC01EE0FFF1FDF
:10072000E80FF91FE754FE4F808186FFC9CFE091A3
:1007300012018E2FEE0F990BFC01EE0FFF1FE80F39
:10074000F91FE754FE4F808160E08F730E94F9012A
:10075000B7CF2091840030918500E09112018E2F57
:10076000EE0F990BFC01EE0FFF1FE80FF91FE75486
:10077000FE4F81819281820F931F90938900809315
:100780008800E09112018E2FEE0F990BFC01EE0F05
:10079000FF1FE80FF91FE754FE4F808186FF11C04D
:1007A000E09112018E2FEE0F990BFC01EE0FFF1F4F
:1007B000E80FF91FE754FE4F808161E08F730E94BC
:1007C000F901FF91EF91DF91CF91BF91AF919F918F
:1007D0008F917F916F915F914F913F912F910F90EA
:1007E0000FBE0F901F90189580E49CE990938900AC
:1007F000809388008FEF80931201E3CF10921F0146
:1008000010921E0188EE93E0A0E0B0E080932001FA
:1008100090932101A0932201B093230184E091E001
:1008200090931D0180931C0185EC90E09093290129
:100830008093280184EC90E090932B0180932A010F
:1008400080EC90E090932D0180932C0181EC90E05E
:1008500090932F0180932E0182EC90E090933101D0
:100860008093300186EC90E09093330180933201C5
:100870001092350110923601109237011092380112
:100880008091DD018C3098F491E0980F9093DD0118
:100890008093DE0190E0FC01EE0FFF1FE80FF91FCF
:1008A000E754FE4F88EB9BE09283818308958FEF9E
:1008B0008093DE010895789484B5826084BD84B508
:1008C000816084BD85B5826085BD85B5816085BD4B
:1008D00080916E00816080936E0010928100809103
:1008E000810082608093810080918100816080938B
:1008F0008100809180008160809380008091B100B0
:1009000084608093B1008091B00081608093B000DA
:1009100080917A00846080937A0080917A0082606E
:1009200080937A0080917A00816080937A00809130
:100930007A00806880937A001092C100E0912C01C7
:10094000F0912D0182E08083E0912801F09129014E
:100950001082E0912A01F0912B018FEC808310929C
:100960003401E0913001F091310186E08083E09123
:100970002E01F0912F01808180618083E0912E0112
:10098000F0912F01808188608083E0912E01F091A9
:100990002F01808180688083E0912E01F0912F01EA
:1009A00080818F7D80838091DE018C3008F068C06B
:1009B000EAEAF0E02491E6E9F0E08491882399F0F6
:1009C00090E0880F991FFC01EA57FF4FA591B49161
:1009D000FC01E458FF4F859194918FB7F894EC9106
:1009E000E22BEC938FBF8091DE01282F30E0F901DC
:1009F000EE0FFF1FE20FF31FE754FE4F9081907C34
:100A0000966090831092DF011092E0012CE0622F3B
:100A10000E94BE05829FB001112430E020E0AB01AE
:100A2000420F531FFA01EE0FFF1FE40FF51FE754AB
:100A3000FE4F908196FD16C02F5F3F4F2C30310541
:100A400071F781110FC01092800082E080938100C5
:100A50001092850010928400B19A80916F0082609C
:100A600080936F00E091DE018E2F90E0FC01EE0F8D
:100A7000FF1FE80FF91FE754FE4F808180648083D9
:100A800090E080E00E948700C0E0D0E084EB90E03E
:100A90000E9487000E946A0290E080E00E94870026
:100AA0000E946A02209791F30E945601882371F3F5
:100AB0000E940000EBCF052E97FB1EF400940E94CD
:100AC000720557FD07D00E948D0507FC03D04EF438
:100AD0000C94720550954095309521953F4F4F4F9E
:100AE0005F4F089590958095709561957F4F8F4FDA
:100AF0009F4F08950E94AF05A59F900DB49F900D44
:100B0000A49F800D911D11240895B7FF0C947A05C0
:100B10000E947A05821B930B0895A1E21A2EAA1B4C
:100B2000BB1BFD010DC0AA1FBB1FEE1FFF1FA2179D
:100B3000B307E407F50720F0A21BB30BE40BF50B9A
:100B4000661F771F881F991F1A9469F76095709523
:100B5000809590959B01AC01BD01CF010895A29FA6
:100B6000B001B39FC001A39F700D811D1124911D81
:100B7000B29F700D811D1124911D0895991B79E07C
:100B800004C0991F961708F0961B881F7A95C9F71D
:100B900080950895EE0FFF1F0590F491E02D0994C4
:040BA000F894FFCFF7
:100BA400000000008C01EC001901D9014A01280160
:020BB4003C0102
:00000001FF
